{
  "contractName": "AgoraContract",
  "abi": [
    {
      "constant": true,
      "inputs": [],
      "name": "contractsRegistry",
      "outputs": [
        {
          "name": "",
          "type": "address"
        }
      ],
      "payable": false,
      "stateMutability": "view",
      "type": "function"
    },
    {
      "inputs": [
        {
          "name": "_taskID",
          "type": "bytes32"
        },
        {
          "name": "_client",
          "type": "address"
        },
        {
          "name": "_provider",
          "type": "address"
        },
        {
          "name": "_payment",
          "type": "uint256"
        },
        {
          "name": "_guarantee",
          "type": "uint256"
        },
        {
          "name": "_duration",
          "type": "uint256"
        },
        {
          "name": "_contractsRegistry",
          "type": "address"
        }
      ],
      "payable": true,
      "stateMutability": "payable",
      "type": "constructor"
    },
    {
      "anonymous": false,
      "inputs": [
        {
          "indexed": false,
          "name": "taskID",
          "type": "bytes32"
        }
      ],
      "name": "TaskCompleted",
      "type": "event"
    },
    {
      "anonymous": false,
      "inputs": [
        {
          "indexed": false,
          "name": "taskID",
          "type": "bytes32"
        }
      ],
      "name": "TaskCanceled",
      "type": "event"
    },
    {
      "anonymous": false,
      "inputs": [
        {
          "indexed": false,
          "name": "taskID",
          "type": "bytes32"
        }
      ],
      "name": "TaskInvalidate",
      "type": "event"
    },
    {
      "constant": false,
      "inputs": [],
      "name": "cancel",
      "outputs": [],
      "payable": false,
      "stateMutability": "nonpayable",
      "type": "function"
    },
    {
      "constant": false,
      "inputs": [],
      "name": "invalidate",
      "outputs": [],
      "payable": false,
      "stateMutability": "nonpayable",
      "type": "function"
    },
    {
      "constant": true,
      "inputs": [],
      "name": "getTaskID",
      "outputs": [
        {
          "name": "",
          "type": "bytes32"
        }
      ],
      "payable": false,
      "stateMutability": "view",
      "type": "function"
    },
    {
      "constant": true,
      "inputs": [],
      "name": "getClientAddress",
      "outputs": [
        {
          "name": "",
          "type": "address"
        }
      ],
      "payable": false,
      "stateMutability": "view",
      "type": "function"
    },
    {
      "constant": true,
      "inputs": [],
      "name": "getProviderAddress",
      "outputs": [
        {
          "name": "",
          "type": "address"
        }
      ],
      "payable": false,
      "stateMutability": "view",
      "type": "function"
    },
    {
      "constant": true,
      "inputs": [],
      "name": "getPayment",
      "outputs": [
        {
          "name": "",
          "type": "uint256"
        }
      ],
      "payable": false,
      "stateMutability": "view",
      "type": "function"
    },
    {
      "constant": true,
      "inputs": [],
      "name": "getGuarantee",
      "outputs": [
        {
          "name": "",
          "type": "uint256"
        }
      ],
      "payable": false,
      "stateMutability": "view",
      "type": "function"
    },
    {
      "constant": true,
      "inputs": [],
      "name": "getDuration",
      "outputs": [
        {
          "name": "",
          "type": "uint256"
        }
      ],
      "payable": false,
      "stateMutability": "view",
      "type": "function"
    },
    {
      "constant": true,
      "inputs": [],
      "name": "getActivateDate",
      "outputs": [
        {
          "name": "",
          "type": "uint256"
        }
      ],
      "payable": false,
      "stateMutability": "view",
      "type": "function"
    },
    {
      "constant": true,
      "inputs": [],
      "name": "getEndDate",
      "outputs": [
        {
          "name": "",
          "type": "uint256"
        }
      ],
      "payable": false,
      "stateMutability": "view",
      "type": "function"
    },
    {
      "constant": true,
      "inputs": [],
      "name": "getStatus",
      "outputs": [
        {
          "name": "",
          "type": "int8"
        }
      ],
      "payable": false,
      "stateMutability": "view",
      "type": "function"
    }
  ],
  "bytecode": "0x60806040526101f4600b556101f4600e556103e8601355600060145560405160e080610d7b833981018060405260e081101561003a57600080fd5b81019080805190602001909291908051906020019092919080519060200190929190805190602001909291908051906020019092919080519060200190929190805190602001909291905050508334141515610124576040517f08c379a00000000000000000000000000000000000000000000000000000000081526004018080602001828103825260318152602001807f5472616e7366657265642076616c7565206973206e6f7420657175616c20746f81526020017f20746865206f6e6520616767726565642e00000000000000000000000000000081525060400191505060405180910390fd5b8383101515156101e8576040517f08c379a00000000000000000000000000000000000000000000000000000000081526004018080602001828103825260508152602001807f466f7220736563757269747920726561736f6e732c207468652067756172616e81526020017f7465652073686f756c642062652067726561746572207468616e20746865206181526020017f6772656564207461736b2070726963650000000000000000000000000000000081525060600191505060405180910390fd5b8660028190555085600360006101000a81548173ffffffffffffffffffffffffffffffffffffffff021916908373ffffffffffffffffffffffffffffffffffffffff16021790555084600460006101000a81548173ffffffffffffffffffffffffffffffffffffffff021916908373ffffffffffffffffffffffffffffffffffffffff1602179055508360058190555082600681905550816007819055506000601560006101000a81548160ff021916908360058111156102a557fe5b021790555080601560016101000a81548173ffffffffffffffffffffffffffffffffffffffff021916908373ffffffffffffffffffffffffffffffffffffffff160217905550601560019054906101000a900473ffffffffffffffffffffffffffffffffffffffff16601660006101000a81548173ffffffffffffffffffffffffffffffffffffffff021916908373ffffffffffffffffffffffffffffffffffffffff16021790555050505050505050610a17806103646000396000f3fe6080604052600436106100ba576000357c0100000000000000000000000000000000000000000000000000000000900463ffffffff1680632bc5f519146100bf5780634e69d560146100ea5780637b860e6e1461011b5780639ea6b4f4146101465780639fb2fff41461019d578063ad2e8c9b146101b4578063b1356488146101df578063bb328a7d1461020a578063c45278a914610235578063d98d0c7e14610260578063ea8a1af0146102b7578063fa174e0b146102ce575b600080fd5b3480156100cb57600080fd5b506100d4610325565b6040518082815260200191505060405180910390f35b3480156100f657600080fd5b506100ff61032f565b604051808260000b60000b815260200191505060405180910390f35b34801561012757600080fd5b506101306104a0565b6040518082815260200191505060405180910390f35b34801561015257600080fd5b5061015b6104aa565b604051808273ffffffffffffffffffffffffffffffffffffffff1673ffffffffffffffffffffffffffffffffffffffff16815260200191505060405180910390f35b3480156101a957600080fd5b506101b26104d4565b005b3480156101c057600080fd5b506101c9610765565b6040518082815260200191505060405180910390f35b3480156101eb57600080fd5b506101f461076f565b6040518082815260200191505060405180910390f35b34801561021657600080fd5b5061021f610779565b6040518082815260200191505060405180910390f35b34801561024157600080fd5b5061024a610783565b6040518082815260200191505060405180910390f35b34801561026c57600080fd5b5061027561078d565b604051808273ffffffffffffffffffffffffffffffffffffffff1673ffffffffffffffffffffffffffffffffffffffff16815260200191505060405180910390f35b3480156102c357600080fd5b506102cc6107b3565b005b3480156102da57600080fd5b506102e36109c1565b604051808273ffffffffffffffffffffffffffffffffffffffff1673ffffffffffffffffffffffffffffffffffffffff16815260200191505060405180910390f35b6000600854905090565b600080600581111561033d57fe5b601560009054906101000a900460ff16600581111561035857fe5b1415610367576000905061049d565b6001600581111561037457fe5b601560009054906101000a900460ff16600581111561038f57fe5b141561039e576001905061049d565b600260058111156103ab57fe5b601560009054906101000a900460ff1660058111156103c657fe5b14156103d5576002905061049d565b600360058111156103e257fe5b601560009054906101000a900460ff1660058111156103fd57fe5b141561040c576003905061049d565b6004600581111561041957fe5b601560009054906101000a900460ff16600581111561043457fe5b1415610443576004905061049d565b60058081111561044f57fe5b601560009054906101000a900460ff16600581111561046a57fe5b1415610479576005905061049d565b7fffffffffffffffffffffffffffffffffffffffffffffffffffffffffffffffff90505b90565b6000600654905090565b6000600360009054906101000a900473ffffffffffffffffffffffffffffffffffffffff16905090565b600360009054906101000a900473ffffffffffffffffffffffffffffffffffffffff1673ffffffffffffffffffffffffffffffffffffffff163373ffffffffffffffffffffffffffffffffffffffff161415156105bf576040517f08c379a00000000000000000000000000000000000000000000000000000000081526004018080602001828103825260218152602001807f4f6e6c7920436c69656e742063616e2063616c6c2074686973206d6574686f6481526020017f2e0000000000000000000000000000000000000000000000000000000000000081525060400191505060405180910390fd5b60028060058111156105cd57fe5b601560009054906101000a900460ff1660058111156105e857fe5b14151561065d576040517f08c379a000000000000000000000000000000000000000000000000000000000815260040180806020018281038252600f8152602001807f496e76616c6964207374617475732e000000000000000000000000000000000081525060200191505060405180910390fd5b6283d600600954016103e84202111515610705576040517f08c379a00000000000000000000000000000000000000000000000000000000081526004018080602001828103825260308152602001807f54686520677261636520706572696f6420686173206e6f74207061737365642081526020017f73696e63652060656e6444617465602e0000000000000000000000000000000081525060400191505060405180910390fd5b6004601560006101000a81548160ff0219169083600581111561072457fe5b02179055507f61f9692613d425d8c7e16a54c5f0c23aa24e0ad1990696063268a981348a11596002546040518082815260200191505060405180910390a150565b6000600754905090565b6000600954905090565b6000600554905090565b6000600254905090565b601560019054906101000a900473ffffffffffffffffffffffffffffffffffffffff1681565b600360009054906101000a900473ffffffffffffffffffffffffffffffffffffffff1673ffffffffffffffffffffffffffffffffffffffff163373ffffffffffffffffffffffffffffffffffffffff1614151561089e576040517f08c379a00000000000000000000000000000000000000000000000000000000081526004018080602001828103825260218152602001807f4f6e6c7920436c69656e742063616e2063616c6c2074686973206d6574686f6481526020017f2e0000000000000000000000000000000000000000000000000000000000000081525060400191505060405180910390fd5b60008060058111156108ac57fe5b601560009054906101000a900460ff1660058111156108c757fe5b14151561093c576040517f08c379a000000000000000000000000000000000000000000000000000000000815260040180806020018281038252600f8152602001807f496e76616c6964207374617475732e000000000000000000000000000000000081525060200191505060405180910390fd5b6001601560006101000a81548160ff0219169083600581111561095b57fe5b02179055503373ffffffffffffffffffffffffffffffffffffffff166108fc3073ffffffffffffffffffffffffffffffffffffffff16319081150290604051600060405180830381858888f193505050501580156109bd573d6000803e3d6000fd5b5050565b6000600460009054906101000a900473ffffffffffffffffffffffffffffffffffffffff1690509056fea165627a7a72305820c07d080924367c29b6f6dab93bd5db916c5044ea46903f741616916f219b50a20029",
  "source": "pragma solidity ^0.5.0;\n\nimport \"./ContractsRegistry.sol\";\n\n//Functionality of a generic contract in Agora\ncontract AgoraContract {\n\n\t//Enum of the possible status values a contract can have\n\tenum Status {\n\t\tInactive,\n\t\tCancelled,\n\t\tActive,\n\t\tComplete,\n\t\tInvalid,\n\t\tChallenged\n\t}\n\n\t// Grace Period After End Date for the provider to complete the contract\n\tuint constant gracePeriod = 8640000;\n\n\t//variables for provider's challenge\n\t//period for the provider to submit a correct proof to the blockchain, after a challenge.\n\tuint constant challengeTime = 500000;\n\tuint internal challengeExpirationDate;\n\n\t//proofIndex of the current challenge\n\tuint internal proofIndex; \n\n\t//unique identifier of the contract\n\tbytes32 internal taskID;\n\n\t//Address of the client\n\taddress payable internal client;\n\t//Address of the service provider\n\taddress payable internal provider;\n\n\t//Agreed payment for the task paid at the creation by the renter.\n\tuint internal payment;\n\t//Amount that the provider puts as a collateral\n\tuint internal guarantee;\n\t//Storage contract duration\n\tuint internal duration;\n\t//Contract activation date\n\tuint internal activateDate;\n\t//endDate is activateDate + duration??\n\tuint internal endDate;\n\n\t//variables for downloading finances\t\n\t//amount renter deposits for downloading bandwidth chunks.\n\tuint internal downloadPayment;\n\tuint internal downloadPrice = 500;\n\tuint internal downloadMoneyEarned;\n\n\t//variable for uploading finances\n\t//amount renter deposits for uploading bandwidth.\n\tuint internal uploadPayment;\n\t//the upload price for uploading a piece of data \n\tuint internal uploadPrice = 500;\n\tuint internal uploadMoneyEarned;\n\n\t//amount renter deposits for challenging provider.\n\tuint internal challengePayment;\n\tuint internal challengePrice;\n\tuint internal challengeMoneyEarned;\n\n\t//amount that gets out of guarantee as penalty for missing a proof\n\tuint internal penalty = 1000;\n\n\t//number of times a provider gets caught missing a proof, missing 2 proofs = disqualification.\n\tuint internal proofsMissed = 0;\n\n\tStatus internal status;\n\n\t//Address of smart contract that stores all storage contracts.\n\taddress public contractsRegistry;\n\tContractsRegistry internal registry;\n\n\t//Events\n\tevent TaskCompleted(bytes32 taskID);\n\tevent TaskCanceled(bytes32 taskID);\n\tevent TaskInvalidate(bytes32 taskID);\n\t//maybe an event TaskChallenged(bytes32 taskID);\n\t//event TaskChallenged(bytes32 taskID);\n\n\t//constructor of a general AgoraContract\n\tconstructor(\n\t\tbytes32 _taskID,\n\t\taddress payable _client,\n\t\taddress payable _provider,\n\t\t//payment deposited from renter\n\t\tuint _payment,\n\t\t//collateral needed from the provider\n\t\tuint _guarantee,\n\t\tuint _duration,\n\t\taddress _contractsRegistry\n\t)\n\t\tpublic\n\t\tpayable\n\t{\n\t\trequire(\n\t\t\tmsg.value == _payment,\n\t\t\t\"Transfered value is not equal to the one aggreed.\"\n\t\t);\n\n\t\trequire(\n\t\t\t_guarantee >= _payment,\n\t\t\t\"For security reasons, the guarantee should be greater than the agreed task price\"\n\t\t);\n\t\n\t\ttaskID = _taskID;\n\t\t\n\t\tclient = _client;\n\t\tprovider = _provider;\n\t\tpayment = _payment;\n\t\tguarantee = _guarantee;\n\t\tduration = _duration;\n\n\t\tstatus = Status.Inactive;\t\n\t\n\t\tcontractsRegistry = _contractsRegistry;\n\t\tregistry = ContractsRegistry(contractsRegistry);\n\t}\n\n\n\n\t//Client can cancel the contract if the contract has not been activated by the client\n\tfunction cancel() public\n       \t\trequiresClient\n\t\trequiresStatus(Status.Inactive)\t\n\t{\n\t\tstatus = Status.Cancelled;\n\t\t//returns the payment back to the renter\n\t\tmsg.sender.transfer(address(this).balance);\t\n\t}\n\n\n\t//Invalidates the contract. This method can be called by the client if the provider\n\t//after the endDate + gracePeriod has failed to upload a Storage Proof.\n\tfunction invalidate() public \n\t\trequiresClient()\n\t\trequiresStatus(Status.Active)\n\t{\n\t\trequire(\n\t\t\t(block.timestamp * 1000 > endDate + gracePeriod),\n\t\t\t\"The grace period has not passed since `endDate`.\"\n\t\t);\n\t\tstatus = Status.Invalid;\n\n\t\temit TaskInvalidate(taskID);\n\t}\n\n\n\t//Getters\n\n\tfunction getTaskID() public view returns (bytes32){\n\t\treturn taskID;\n\t}\n\n\tfunction getClientAddress() public view returns (address){\n\t\treturn client;\n}\n\n\tfunction getProviderAddress() public view returns (address){\n\t\treturn provider;\n\t}\n\n\tfunction getPayment() public view returns (uint){\n\t\treturn payment;\n\t}\n\n\tfunction getGuarantee() public view returns (uint) {\n\t\treturn guarantee;\n\t}\n\n\tfunction getDuration() public view returns (uint) {\n\t\treturn duration;\n\t}\n\n\tfunction getActivateDate() public view returns (uint) {\n\t\treturn activateDate;\n\t}\n\n\tfunction getEndDate() public view returns (uint) {\n\t\treturn endDate;\n\t}\n\n\tfunction getStatus() public view returns (int8) {\n\t\tif (status == Status.Inactive) {\n\t\t\treturn 0;\n\t\t} else if (status == Status.Cancelled) {\n\t\t\treturn 1;\n\t\t} else if (status == Status.Active) {\n\t\t\treturn 2;\n\t\t} else if (status == Status.Complete) {\n\t\t\treturn 3;\n\t\t} else if (status == Status.Invalid) {\n\t\t\treturn 4;\n\t\t} else if (status == Status.Challenged) {\n\t\t\treturn 5;\n\t\t} else {\n\t\t\treturn -1;\n\t\t}\n\t}\n\n\t//Modifiers\n\tmodifier requiresClient() {\n\t\trequire(\n\t\t\tmsg.sender == client,\n\t\t\t\"Only Client can call this method.\"\n\t\t);\n\t\t_;\n\t}\n\n\tmodifier requiresProvider() {\n\t\trequire(\n\t\t\tmsg.sender == provider,\n\t\t\t\"Only provider can call this method.\"\n\t\t);\n\t\t_;\n\t}\n\n\tmodifier requiresStatus(Status _status) {\n\t\trequire(\n\t\t\tstatus == _status,\n\t\t\t\"Invalid status.\"\n\t\t);\n\t\t_;\n\t}\n\n\n\n}\n",
  "sourcePath": "/home/fotis/truffle-example/contracts/AgoraContract.sol",
  "compiler": {
    "name": "solc",
    "version": "0.5.0+commit.1d4f565a.Emscripten.clang"
  },
  "schemaVersion": "3.2.3",
  "updatedAt": "2021-05-25T16:29:17.696Z",
  "devdoc": {
    "methods": {}
  },
  "userdoc": {
    "methods": {}
  }
}