{
  "contractName": "ContractsRegistry",
  "abi": [
    {
      "constant": true,
      "inputs": [
        {
          "name": "",
          "type": "uint256"
        }
      ],
      "name": "storageContracts",
      "outputs": [
        {
          "name": "",
          "type": "address"
        }
      ],
      "payable": false,
      "stateMutability": "view",
      "type": "function"
    },
    {
      "constant": false,
      "inputs": [
        {
          "name": "storagecontract",
          "type": "address"
        }
      ],
      "name": "registerStorageContract",
      "outputs": [],
      "payable": false,
      "stateMutability": "nonpayable",
      "type": "function"
    },
    {
      "constant": false,
      "inputs": [
        {
          "name": "storageContract",
          "type": "address"
        }
      ],
      "name": "deleteStorageContract",
      "outputs": [
        {
          "name": "",
          "type": "bool"
        }
      ],
      "payable": false,
      "stateMutability": "nonpayable",
      "type": "function"
    }
  ],
  "bytecode": "0x608060405234801561001057600080fd5b50610348806100206000396000f3fe608060405260043610610057576000357c0100000000000000000000000000000000000000000000000000000000900463ffffffff168063383199cf1461005c578063a9ad5825146100ad578063df6c3a7914610128575b600080fd5b34801561006857600080fd5b506100ab6004803603602081101561007f57600080fd5b81019080803573ffffffffffffffffffffffffffffffffffffffff169060200190929190505050610191565b005b3480156100b957600080fd5b506100e6600480360360208110156100d057600080fd5b81019080803590602001909291905050506101fa565b604051808273ffffffffffffffffffffffffffffffffffffffff1673ffffffffffffffffffffffffffffffffffffffff16815260200191505060405180910390f35b34801561013457600080fd5b506101776004803603602081101561014b57600080fd5b81019080803573ffffffffffffffffffffffffffffffffffffffff169060200190929190505050610238565b604051808215151515815260200191505060405180910390f35b60008190806001815401808255809150509060018203906000526020600020016000909192909190916101000a81548173ffffffffffffffffffffffffffffffffffffffff021916908373ffffffffffffffffffffffffffffffffffffffff1602179055505050565b60008181548110151561020957fe5b906000526020600020016000915054906101000a900473ffffffffffffffffffffffffffffffffffffffff1681565b60008060008080549050905060008090505b818110156102d45760008181548110151561026157fe5b9060005260206000200160009054906101000a900473ffffffffffffffffffffffffffffffffffffffff1673ffffffffffffffffffffffffffffffffffffffff168573ffffffffffffffffffffffffffffffffffffffff1614156102c7578092506102d4565b808060010191505061024a565b506000828154811015156102e457fe5b9060005260206000200160006101000a81549073ffffffffffffffffffffffffffffffffffffffff021916905560019250505091905056fea165627a7a723058208fb219239ef58ad82d9057b8d3035f5044d8918d34123b086b1a95f2116bf1ef0029",
  "source": "pragma solidity ^0.5.0;\n\ncontract ContractsRegistry {\n\n\taddress[] public storageContracts;\n\n\t\n\tfunction registerStorageContract(address storagecontract) public {\n\t\tstorageContracts.push(storagecontract);\n\n\t}\t\n\n\tfunction deleteStorageContract(address storageContract) public returns (bool){\n\t\tuint selectedIndex;\n\t\tuint storageContractsLength = storageContracts.length;\n\t\tfor (uint i = 0; i < storageContractsLength; i++) {\n\t\t\tif (storageContract == storageContracts[i]) {\n\t\t\t\tselectedIndex = i;\n\t\t\t\tbreak;\n\t\t\t}\n\t\t}\n\t\tdelete storageContracts[selectedIndex];\n\t\t//Fixme : shift element for eliminating gaps after deletion;\n\t\treturn true;\n\t}\n}\n",
  "sourcePath": "/home/fotis/truffle-example/contracts/ContractsRegistry.sol",
  "compiler": {
    "name": "solc",
    "version": "0.5.0+commit.1d4f565a.Emscripten.clang"
  },
  "schemaVersion": "3.2.3",
  "updatedAt": "2021-05-25T16:29:22.939Z",
  "networkType": "ethereum",
  "devdoc": {
    "methods": {}
  },
  "userdoc": {
    "methods": {}
  }
}