{
  "contractName": "Election",
  "abi": [
    {
      "constant": true,
      "inputs": [],
      "name": "candidatesCount",
      "outputs": [
        {
          "name": "",
          "type": "uint256"
        }
      ],
      "payable": false,
      "stateMutability": "view",
      "type": "function"
    },
    {
      "constant": true,
      "inputs": [
        {
          "name": "",
          "type": "uint256"
        }
      ],
      "name": "candidates",
      "outputs": [
        {
          "name": "id",
          "type": "uint256"
        },
        {
          "name": "name",
          "type": "string"
        },
        {
          "name": "voteCount",
          "type": "uint256"
        }
      ],
      "payable": false,
      "stateMutability": "view",
      "type": "function"
    },
    {
      "constant": true,
      "inputs": [
        {
          "name": "",
          "type": "address"
        }
      ],
      "name": "Voters",
      "outputs": [
        {
          "name": "",
          "type": "bool"
        }
      ],
      "payable": false,
      "stateMutability": "view",
      "type": "function"
    },
    {
      "inputs": [],
      "payable": false,
      "stateMutability": "nonpayable",
      "type": "constructor"
    },
    {
      "constant": false,
      "inputs": [
        {
          "name": "_id",
          "type": "uint256"
        }
      ],
      "name": "Vote",
      "outputs": [],
      "payable": false,
      "stateMutability": "nonpayable",
      "type": "function"
    }
  ],
  "bytecode": "0x608060405234801561001057600080fd5b5061005e6040805190810160405280600b81526020017f43616e64696461746520310000000000000000000000000000000000000000008152506100b0640100000000026401000000009004565b6100ab6040805190810160405280600b81526020017f43616e64696461746520320000000000000000000000000000000000000000008152506100b0640100000000026401000000009004565b6101d1565b60026000815480929190600101919050555060606040519081016040528060025481526020018281526020016000815250600080600254815260200190815260200160002060008201518160000155602082015181600101908051906020019061011b92919061012c565b506040820151816002015590505050565b828054600181600116156101000203166002900490600052602060002090601f016020900481019282601f1061016d57805160ff191683800117855561019b565b8280016001018555821561019b579182015b8281111561019a57825182559160200191906001019061017f565b5b5090506101a891906101ac565b5090565b6101ce91905b808211156101ca5760008160009055506001016101b2565b5090565b90565b610473806101e06000396000f3fe608060405260043610610062576000357c0100000000000000000000000000000000000000000000000000000000900463ffffffff1680632d35a8a2146100675780633477ee2e14610092578063dcd6a5cd14610154578063fdedaa8a1461018f575b600080fd5b34801561007357600080fd5b5061007c6101f8565b6040518082815260200191505060405180910390f35b34801561009e57600080fd5b506100cb600480360360208110156100b557600080fd5b81019080803590602001909291905050506101fe565b6040518084815260200180602001838152602001828103825284818151815260200191508051906020019080838360005b838110156101175780820151818401526020810190506100fc565b50505050905090810190601f1680156101445780820380516001836020036101000a031916815260200191505b5094505050505060405180910390f35b34801561016057600080fd5b5061018d6004803603602081101561017757600080fd5b81019080803590602001909291905050506102c0565b005b34801561019b57600080fd5b506101de600480360360208110156101b257600080fd5b81019080803573ffffffffffffffffffffffffffffffffffffffff169060200190929190505050610427565b604051808215151515815260200191505060405180910390f35b60025481565b6000602052806000526040600020600091509050806000015490806001018054600181600116156101000203166002900480601f0160208091040260200160405190810160405280929190818152602001828054600181600116156101000203166002900480156102b05780601f10610285576101008083540402835291602001916102b0565b820191906000526020600020905b81548152906001019060200180831161029357829003601f168201915b5050505050908060020154905083565b600160003373ffffffffffffffffffffffffffffffffffffffff1673ffffffffffffffffffffffffffffffffffffffff16815260200190815260200160002060009054906101000a900460ff161515156103a8576040517f08c379a00000000000000000000000000000000000000000000000000000000081526004018080602001828103825260218152602001807f5468697320766f7465722068617320616c726561647920766f746564206f6e6381526020017f650000000000000000000000000000000000000000000000000000000000000081525060400191505060405180910390fd5b60018060003373ffffffffffffffffffffffffffffffffffffffff1673ffffffffffffffffffffffffffffffffffffffff16815260200190815260200160002060006101000a81548160ff0219169083151502179055506000808281526020019081526020016000206002016000815480929190600101919050555050565b60016020528060005260406000206000915054906101000a900460ff168156fea165627a7a72305820cfb85675b06640892db80421e18b3e4c319c2382260b3ef96651c60557746d590029",
  "source": "//pragma solidity >=0.4.21 <0.7.0;\npragma solidity ^0.5.0;\n\ncontract Election {\n\n\tstruct Candidate{\n\t\tuint id;\n\t\tstring name;\n\t\tuint voteCount;\n\t}\n\n\t//Store Candidates\n\t//Fetch Candidates\n\tmapping(uint => Candidate) public candidates;\n\n\t//Boolean mapping\n\tmapping(address => bool) public Voters;\n\n\t//Store candidates count\n\tuint public candidatesCount;\n\n\tconstructor() public {\n\t\taddCandidate(\"Candidate 1\");\n\t\taddCandidate(\"Candidate 2\");\n\t}\n\n\t//Private means that can only be called from within the contract\n\t//_name is because it is a local variable not a state variable\n\tfunction addCandidate(string memory _name) private {\n\n\t\tcandidatesCount++;\n\t\tcandidates[candidatesCount] = Candidate(candidatesCount, _name, 0);\n\t}\n\n\n\tfunction Vote(uint _id) public {\n\t\trequire(!Voters[msg.sender], \"This voter has already voted once\");\n\t\tVoters[msg.sender] = true;\n\t\tcandidates[_id].voteCount++;\n\t}\n}\n",
  "sourcePath": "/home/fotis/truffle-example/contracts/Election.sol",
  "compiler": {
    "name": "solc",
    "version": "0.5.0+commit.1d4f565a.Emscripten.clang"
  },
  "schemaVersion": "3.2.3",
  "updatedAt": "2021-05-25T16:29:17.728Z",
  "devdoc": {
    "methods": {}
  },
  "userdoc": {
    "methods": {}
  }
}