{
  "contractName": "StorageAgreement",
  "abi": [
    {
      "constant": true,
      "inputs": [],
      "name": "getActivateDate",
      "outputs": [
        {
          "name": "",
          "type": "uint256"
        }
      ],
      "payable": false,
      "stateMutability": "view",
      "type": "function"
    },
    {
      "constant": true,
      "inputs": [],
      "name": "getStatus",
      "outputs": [
        {
          "name": "",
          "type": "int8"
        }
      ],
      "payable": false,
      "stateMutability": "view",
      "type": "function"
    },
    {
      "constant": true,
      "inputs": [],
      "name": "getGuarantee",
      "outputs": [
        {
          "name": "",
          "type": "uint256"
        }
      ],
      "payable": false,
      "stateMutability": "view",
      "type": "function"
    },
    {
      "constant": true,
      "inputs": [],
      "name": "getClientAddress",
      "outputs": [
        {
          "name": "",
          "type": "address"
        }
      ],
      "payable": false,
      "stateMutability": "view",
      "type": "function"
    },
    {
      "constant": true,
      "inputs": [],
      "name": "getDuration",
      "outputs": [
        {
          "name": "",
          "type": "uint256"
        }
      ],
      "payable": false,
      "stateMutability": "view",
      "type": "function"
    },
    {
      "constant": true,
      "inputs": [],
      "name": "getEndDate",
      "outputs": [
        {
          "name": "",
          "type": "uint256"
        }
      ],
      "payable": false,
      "stateMutability": "view",
      "type": "function"
    },
    {
      "constant": true,
      "inputs": [],
      "name": "getPayment",
      "outputs": [
        {
          "name": "",
          "type": "uint256"
        }
      ],
      "payable": false,
      "stateMutability": "view",
      "type": "function"
    },
    {
      "constant": true,
      "inputs": [],
      "name": "getTaskID",
      "outputs": [
        {
          "name": "",
          "type": "bytes32"
        }
      ],
      "payable": false,
      "stateMutability": "view",
      "type": "function"
    },
    {
      "constant": true,
      "inputs": [],
      "name": "contractsRegistry",
      "outputs": [
        {
          "name": "",
          "type": "address"
        }
      ],
      "payable": false,
      "stateMutability": "view",
      "type": "function"
    },
    {
      "constant": true,
      "inputs": [],
      "name": "getProviderAddress",
      "outputs": [
        {
          "name": "",
          "type": "address"
        }
      ],
      "payable": false,
      "stateMutability": "view",
      "type": "function"
    },
    {
      "inputs": [
        {
          "name": "_taskID",
          "type": "bytes32"
        },
        {
          "name": "_client",
          "type": "address"
        },
        {
          "name": "_provider",
          "type": "address"
        },
        {
          "name": "_payment",
          "type": "uint256"
        },
        {
          "name": "_guarantee",
          "type": "uint256"
        },
        {
          "name": "_duration",
          "type": "uint256"
        },
        {
          "name": "_contractsRegistry",
          "type": "address"
        }
      ],
      "payable": true,
      "stateMutability": "payable",
      "type": "constructor"
    },
    {
      "anonymous": false,
      "inputs": [
        {
          "indexed": false,
          "name": "taskID",
          "type": "bytes32"
        },
        {
          "indexed": false,
          "name": "storageContractAddress",
          "type": "address"
        }
      ],
      "name": "StorageTaskCreated",
      "type": "event"
    },
    {
      "anonymous": false,
      "inputs": [
        {
          "indexed": false,
          "name": "storageContractAddress",
          "type": "address"
        }
      ],
      "name": "ContractActivated",
      "type": "event"
    },
    {
      "anonymous": false,
      "inputs": [
        {
          "indexed": false,
          "name": "storageContractAddress",
          "type": "address"
        },
        {
          "indexed": false,
          "name": "proofIndex",
          "type": "uint256"
        },
        {
          "indexed": false,
          "name": "expDate",
          "type": "uint256"
        }
      ],
      "name": "ContractChallenged",
      "type": "event"
    },
    {
      "anonymous": false,
      "inputs": [
        {
          "indexed": false,
          "name": "taskID",
          "type": "bytes32"
        }
      ],
      "name": "TaskCompleted",
      "type": "event"
    },
    {
      "anonymous": false,
      "inputs": [
        {
          "indexed": false,
          "name": "taskID",
          "type": "bytes32"
        }
      ],
      "name": "TaskCanceled",
      "type": "event"
    },
    {
      "anonymous": false,
      "inputs": [
        {
          "indexed": false,
          "name": "taskID",
          "type": "bytes32"
        }
      ],
      "name": "TaskInvalidate",
      "type": "event"
    },
    {
      "constant": true,
      "inputs": [
        {
          "name": "_merkleRoot",
          "type": "bytes32"
        },
        {
          "name": "_data",
          "type": "bytes"
        },
        {
          "name": "_proofSet",
          "type": "bytes32"
        },
        {
          "name": "_fileContractSize",
          "type": "uint256"
        },
        {
          "name": "_myRevision",
          "type": "uint256"
        },
        {
          "name": "_proofIndex",
          "type": "uint256"
        },
        {
          "name": "_numLeaves",
          "type": "uint256"
        }
      ],
      "name": "computeMsgHash",
      "outputs": [
        {
          "name": "keccakHash",
          "type": "bytes32"
        }
      ],
      "payable": false,
      "stateMutability": "pure",
      "type": "function"
    },
    {
      "constant": true,
      "inputs": [
        {
          "name": "_msg",
          "type": "bytes"
        }
      ],
      "name": "bytesHash",
      "outputs": [
        {
          "name": "",
          "type": "bytes32"
        }
      ],
      "payable": false,
      "stateMutability": "pure",
      "type": "function"
    },
    {
      "constant": true,
      "inputs": [
        {
          "name": "a",
          "type": "bytes32"
        },
        {
          "name": "b",
          "type": "bytes32"
        }
      ],
      "name": "nodeSum",
      "outputs": [
        {
          "name": "hash",
          "type": "bytes32"
        }
      ],
      "payable": false,
      "stateMutability": "pure",
      "type": "function"
    },
    {
      "constant": false,
      "inputs": [],
      "name": "activate",
      "outputs": [],
      "payable": true,
      "stateMutability": "payable",
      "type": "function"
    },
    {
      "constant": false,
      "inputs": [
        {
          "name": "signatureClient",
          "type": "bytes"
        },
        {
          "name": "signatureProvider",
          "type": "bytes"
        },
        {
          "name": "_merkleRoot",
          "type": "bytes32"
        },
        {
          "name": "_revisionNumber",
          "type": "uint256"
        },
        {
          "name": "_numLeaves",
          "type": "uint256"
        }
      ],
      "name": "challengeProvider",
      "outputs": [],
      "payable": false,
      "stateMutability": "nonpayable",
      "type": "function"
    },
    {
      "constant": false,
      "inputs": [
        {
          "name": "signatureClient",
          "type": "bytes"
        },
        {
          "name": "signatureProvider",
          "type": "bytes"
        },
        {
          "name": "_merkleRoot",
          "type": "bytes32"
        },
        {
          "name": "_data",
          "type": "bytes"
        },
        {
          "name": "_proofSet",
          "type": "bytes32[]"
        },
        {
          "name": "_fileContractSize",
          "type": "uint256"
        },
        {
          "name": "_revisionNumber",
          "type": "uint256"
        },
        {
          "name": "_proofIndex",
          "type": "uint256"
        },
        {
          "name": "_numLeaves",
          "type": "uint256"
        }
      ],
      "name": "challengeProviderAfterWrongProof",
      "outputs": [],
      "payable": false,
      "stateMutability": "nonpayable",
      "type": "function"
    },
    {
      "constant": false,
      "inputs": [
        {
          "name": "signatureClient",
          "type": "bytes"
        },
        {
          "name": "signatureProvider",
          "type": "bytes"
        },
        {
          "name": "_merkleRoot",
          "type": "bytes32"
        },
        {
          "name": "_data",
          "type": "bytes"
        },
        {
          "name": "_proofSet",
          "type": "bytes32[]"
        },
        {
          "name": "_proofIndex",
          "type": "uint256"
        },
        {
          "name": "_numLeaves",
          "type": "uint256"
        },
        {
          "name": "_revisionNumber",
          "type": "uint256"
        }
      ],
      "name": "asnwerChallenge",
      "outputs": [],
      "payable": false,
      "stateMutability": "nonpayable",
      "type": "function"
    },
    {
      "constant": false,
      "inputs": [
        {
          "name": "signatureClient",
          "type": "bytes"
        },
        {
          "name": "signatureProvider",
          "type": "bytes"
        },
        {
          "name": "_merkleRoot",
          "type": "bytes32"
        },
        {
          "name": "_revision",
          "type": "uint256"
        },
        {
          "name": "_numLeaves",
          "type": "uint256"
        }
      ],
      "name": "verifySignaturesChallenge",
      "outputs": [
        {
          "name": "",
          "type": "bool"
        }
      ],
      "payable": false,
      "stateMutability": "nonpayable",
      "type": "function"
    },
    {
      "constant": false,
      "inputs": [
        {
          "name": "signatureClient",
          "type": "bytes"
        },
        {
          "name": "signatureProvider",
          "type": "bytes"
        },
        {
          "name": "_merkleRoot",
          "type": "bytes32"
        },
        {
          "name": "_data",
          "type": "bytes"
        },
        {
          "name": "_proofSet",
          "type": "bytes32[]"
        },
        {
          "name": "_fileContractSize",
          "type": "uint256"
        },
        {
          "name": "_revision",
          "type": "uint256"
        },
        {
          "name": "_proofIndex",
          "type": "uint256"
        },
        {
          "name": "_numLeaves",
          "type": "uint256"
        }
      ],
      "name": "verifySignatures",
      "outputs": [
        {
          "name": "",
          "type": "bool"
        }
      ],
      "payable": false,
      "stateMutability": "nonpayable",
      "type": "function"
    },
    {
      "constant": true,
      "inputs": [
        {
          "name": "_proofSet",
          "type": "bytes32[]"
        }
      ],
      "name": "calculateArrayHash",
      "outputs": [
        {
          "name": "hash",
          "type": "bytes32"
        }
      ],
      "payable": false,
      "stateMutability": "view",
      "type": "function"
    },
    {
      "constant": true,
      "inputs": [
        {
          "name": "merkleRoot",
          "type": "bytes32"
        },
        {
          "name": "data",
          "type": "bytes"
        },
        {
          "name": "proofSet",
          "type": "bytes32[]"
        },
        {
          "name": "prIndex",
          "type": "uint256"
        },
        {
          "name": "numLeaves",
          "type": "uint256"
        }
      ],
      "name": "verifyProof",
      "outputs": [
        {
          "name": "",
          "type": "bool"
        }
      ],
      "payable": false,
      "stateMutability": "view",
      "type": "function"
    },
    {
      "constant": false,
      "inputs": [],
      "name": "uploadDeposit",
      "outputs": [],
      "payable": true,
      "stateMutability": "payable",
      "type": "function"
    },
    {
      "constant": false,
      "inputs": [],
      "name": "downloadDeposit",
      "outputs": [],
      "payable": true,
      "stateMutability": "payable",
      "type": "function"
    },
    {
      "constant": false,
      "inputs": [],
      "name": "challengeDeposit",
      "outputs": [],
      "payable": true,
      "stateMutability": "payable",
      "type": "function"
    },
    {
      "constant": true,
      "inputs": [
        {
          "name": "hash",
          "type": "bytes32"
        },
        {
          "name": "signature",
          "type": "bytes"
        }
      ],
      "name": "recover",
      "outputs": [
        {
          "name": "",
          "type": "address"
        }
      ],
      "payable": false,
      "stateMutability": "pure",
      "type": "function"
    },
    {
      "constant": false,
      "inputs": [],
      "name": "cancel",
      "outputs": [],
      "payable": false,
      "stateMutability": "nonpayable",
      "type": "function"
    },
    {
      "constant": false,
      "inputs": [],
      "name": "invalidate",
      "outputs": [],
      "payable": false,
      "stateMutability": "nonpayable",
      "type": "function"
    }
  ],
  "bytecode": "0x60806040526101f4600b556101f4600e556103e8601355600060145560405160e08062003f6f833981018060405260e08110156200003c57600080fd5b81019080805190602001909291908051906020019092919080519060200190929190805190602001909291908051906020019092919080519060200190929190805190602001909291905050508686868686868683341415156200012e576040517f08c379a00000000000000000000000000000000000000000000000000000000081526004018080602001828103825260318152602001807f5472616e7366657265642076616c7565206973206e6f7420657175616c20746f81526020017f20746865206f6e6520616767726565642e00000000000000000000000000000081525060400191505060405180910390fd5b838310151515620001f3576040517f08c379a00000000000000000000000000000000000000000000000000000000081526004018080602001828103825260508152602001807f466f7220736563757269747920726561736f6e732c207468652067756172616e81526020017f7465652073686f756c642062652067726561746572207468616e20746865206181526020017f6772656564207461736b2070726963650000000000000000000000000000000081525060600191505060405180910390fd5b8660028190555085600360006101000a81548173ffffffffffffffffffffffffffffffffffffffff021916908373ffffffffffffffffffffffffffffffffffffffff16021790555084600460006101000a81548173ffffffffffffffffffffffffffffffffffffffff021916908373ffffffffffffffffffffffffffffffffffffffff1602179055508360058190555082600681905550816007819055506000601560006101000a81548160ff02191690836005811115620002b157fe5b021790555080601560016101000a81548173ffffffffffffffffffffffffffffffffffffffff021916908373ffffffffffffffffffffffffffffffffffffffff160217905550601560019054906101000a900473ffffffffffffffffffffffffffffffffffffffff16601660006101000a81548173ffffffffffffffffffffffffffffffffffffffff021916908373ffffffffffffffffffffffffffffffffffffffff16021790555050505050505050601660009054906101000a900473ffffffffffffffffffffffffffffffffffffffff1673ffffffffffffffffffffffffffffffffffffffff1663383199cf306040518263ffffffff167c0100000000000000000000000000000000000000000000000000000000028152600401808273ffffffffffffffffffffffffffffffffffffffff1673ffffffffffffffffffffffffffffffffffffffff168152602001915050600060405180830381600087803b1580156200041f57600080fd5b505af115801562000434573d6000803e3d6000fd5b505050507f5b53d7d1b24a12302a2c8c33c840fa0358591032f14020a42fa884654cc0b6f760025430604051808381526020018273ffffffffffffffffffffffffffffffffffffffff1673ffffffffffffffffffffffffffffffffffffffff1681526020019250505060405180910390a150505050505050613ab380620004bc6000396000f3fe60806040526004361061015f576000357c0100000000000000000000000000000000000000000000000000000000900463ffffffff16806308b76949146101645780630d13fd7b1461016e5780630f15f4c0146101785780631058a5d31461018257806319045a251461043f5780632bc5f519146105515780633e6dd2d81461057c57806344ced0a3146105d55780634695ad87146106ed5780634e69d560146108825780634f8665f5146108b357806359023d8614610a455780637b860e6e14610d1a578063943588a414610d4557806394744ce714610ff85780639ea6b4f4146111755780639fb2fff4146111cc578063ad2e8c9b146111e3578063b13564881461120e578063b365953914611239578063bb328a7d14611243578063c0b4ad341461126e578063c45278a91461134a578063d98d0c7e14611375578063ea8a1af0146113cc578063f570af33146113e3578063fa174e0b146114bc575b600080fd5b61016c611513565b005b6101766115d0565b005b61018061168d565b005b34801561018e57600080fd5b5061043d60048036036101208110156101a657600080fd5b81019080803590602001906401000000008111156101c357600080fd5b8201836020820111156101d557600080fd5b803590602001918460018302840111640100000000831117156101f757600080fd5b91908080601f016020809104026020016040519081016040528093929190818152602001838380828437600081840152601f19601f8201169050808301925050505050505091929192908035906020019064010000000081111561025a57600080fd5b82018360208201111561026c57600080fd5b8035906020019184600183028401116401000000008311171561028e57600080fd5b91908080601f016020809104026020016040519081016040528093929190818152602001838380828437600081840152601f19601f82011690508083019250505050505050919291929080359060200190929190803590602001906401000000008111156102fb57600080fd5b82018360208201111561030d57600080fd5b8035906020019184600183028401116401000000008311171561032f57600080fd5b91908080601f016020809104026020016040519081016040528093929190818152602001838380828437600081840152601f19601f8201169050808301925050505050505091929192908035906020019064010000000081111561039257600080fd5b8201836020820111156103a457600080fd5b803590602001918460208302840111640100000000831117156103c657600080fd5b919080806020026020016040519081016040528093929190818152602001838360200280828437600081840152601f19601f82011690508083019250505050505050919291929080359060200190929190803590602001909291908035906020019092919080359060200190929190505050611957565b005b34801561044b57600080fd5b5061050f6004803603604081101561046257600080fd5b81019080803590602001909291908035906020019064010000000081111561048957600080fd5b82018360208201111561049b57600080fd5b803590602001918460018302840111640100000000831117156104bd57600080fd5b91908080601f016020809104026020016040519081016040528093929190818152602001838380828437600081840152601f19601f820116905080830192505050505050509192919290505050611de3565b604051808273ffffffffffffffffffffffffffffffffffffffff1673ffffffffffffffffffffffffffffffffffffffff16815260200191505060405180910390f35b34801561055d57600080fd5b50610566611df7565b6040518082815260200191505060405180910390f35b34801561058857600080fd5b506105bf6004803603604081101561059f57600080fd5b810190808035906020019092919080359060200190929190505050611e01565b6040518082815260200191505060405180910390f35b3480156105e157600080fd5b506106d7600480360360e08110156105f857600080fd5b81019080803590602001909291908035906020019064010000000081111561061f57600080fd5b82018360208201111561063157600080fd5b8035906020019184600183028401116401000000008311171561065357600080fd5b91908080601f016020809104026020016040519081016040528093929190818152602001838380828437600081840152601f19601f8201169050808301925050505050505091929192908035906020019092919080359060200190929190803590602001909291908035906020019092919080359060200190929190505050611e65565b6040518082815260200191505060405180910390f35b3480156106f957600080fd5b50610868600480360360a081101561071057600080fd5b810190808035906020019064010000000081111561072d57600080fd5b82018360208201111561073f57600080fd5b8035906020019184600183028401116401000000008311171561076157600080fd5b91908080601f016020809104026020016040519081016040528093929190818152602001838380828437600081840152601f19601f820116905080830192505050505050509192919290803590602001906401000000008111156107c457600080fd5b8201836020820111156107d657600080fd5b803590602001918460018302840111640100000000831117156107f857600080fd5b91908080601f016020809104026020016040519081016040528093929190818152602001838380828437600081840152601f19601f820116905080830192505050505050509192919290803590602001909291908035906020019092919080359060200190929190505050611f6e565b604051808215151515815260200191505060405180910390f35b34801561088e57600080fd5b506108976120e7565b604051808260000b60000b815260200191505060405180910390f35b3480156108bf57600080fd5b50610a2b600480360360a08110156108d657600080fd5b8101908080359060200190929190803590602001906401000000008111156108fd57600080fd5b82018360208201111561090f57600080fd5b8035906020019184600183028401116401000000008311171561093157600080fd5b91908080601f016020809104026020016040519081016040528093929190818152602001838380828437600081840152601f19601f8201169050808301925050505050505091929192908035906020019064010000000081111561099457600080fd5b8201836020820111156109a657600080fd5b803590602001918460208302840111640100000000831117156109c857600080fd5b919080806020026020016040519081016040528093929190818152602001838360200280828437600081840152601f19601f8201169050808301925050505050505091929192908035906020019092919080359060200190929190505050612258565b604051808215151515815260200191505060405180910390f35b348015610a5157600080fd5b50610d006004803603610120811015610a6957600080fd5b8101908080359060200190640100000000811115610a8657600080fd5b820183602082011115610a9857600080fd5b80359060200191846001830284011164010000000083111715610aba57600080fd5b91908080601f016020809104026020016040519081016040528093929190818152602001838380828437600081840152601f19601f82011690508083019250505050505050919291929080359060200190640100000000811115610b1d57600080fd5b820183602082011115610b2f57600080fd5b80359060200191846001830284011164010000000083111715610b5157600080fd5b91908080601f016020809104026020016040519081016040528093929190818152602001838380828437600081840152601f19601f8201169050808301925050505050505091929192908035906020019092919080359060200190640100000000811115610bbe57600080fd5b820183602082011115610bd057600080fd5b80359060200191846001830284011164010000000083111715610bf257600080fd5b91908080601f016020809104026020016040519081016040528093929190818152602001838380828437600081840152601f19601f82011690508083019250505050505050919291929080359060200190640100000000811115610c5557600080fd5b820183602082011115610c6757600080fd5b80359060200191846020830284011164010000000083111715610c8957600080fd5b919080806020026020016040519081016040528093929190818152602001838360200280828437600081840152601f19601f8201169050808301925050505050505091929192908035906020019092919080359060200190929190803590602001909291908035906020019092919050505061251e565b604051808215151515815260200191505060405180910390f35b348015610d2657600080fd5b50610d2f61262d565b6040518082815260200191505060405180910390f35b348015610d5157600080fd5b50610ff66004803603610100811015610d6957600080fd5b8101908080359060200190640100000000811115610d8657600080fd5b820183602082011115610d9857600080fd5b80359060200191846001830284011164010000000083111715610dba57600080fd5b91908080601f016020809104026020016040519081016040528093929190818152602001838380828437600081840152601f19601f82011690508083019250505050505050919291929080359060200190640100000000811115610e1d57600080fd5b820183602082011115610e2f57600080fd5b80359060200191846001830284011164010000000083111715610e5157600080fd5b91908080601f016020809104026020016040519081016040528093929190818152602001838380828437600081840152601f19601f8201169050808301925050505050505091929192908035906020019092919080359060200190640100000000811115610ebe57600080fd5b820183602082011115610ed057600080fd5b80359060200191846001830284011164010000000083111715610ef257600080fd5b91908080601f016020809104026020016040519081016040528093929190818152602001838380828437600081840152601f19601f82011690508083019250505050505050919291929080359060200190640100000000811115610f5557600080fd5b820183602082011115610f6757600080fd5b80359060200191846020830284011164010000000083111715610f8957600080fd5b919080806020026020016040519081016040528093929190818152602001838360200280828437600081840152601f19601f820116905080830192505050505050509192919290803590602001909291908035906020019092919080359060200190929190505050612637565b005b34801561100457600080fd5b50611173600480360360a081101561101b57600080fd5b810190808035906020019064010000000081111561103857600080fd5b82018360208201111561104a57600080fd5b8035906020019184600183028401116401000000008311171561106c57600080fd5b91908080601f016020809104026020016040519081016040528093929190818152602001838380828437600081840152601f19601f820116905080830192505050505050509192919290803590602001906401000000008111156110cf57600080fd5b8201836020820111156110e157600080fd5b8035906020019184600183028401116401000000008311171561110357600080fd5b91908080601f016020809104026020016040519081016040528093929190818152602001838380828437600081840152601f19601f820116905080830192505050505050509192919290803590602001909291908035906020019092919080359060200190929190505050612a68565b005b34801561118157600080fd5b5061118a612e91565b604051808273ffffffffffffffffffffffffffffffffffffffff1673ffffffffffffffffffffffffffffffffffffffff16815260200191505060405180910390f35b3480156111d857600080fd5b506111e1612ebb565b005b3480156111ef57600080fd5b506111f86130ea565b6040518082815260200191505060405180910390f35b34801561121a57600080fd5b506112236130f4565b6040518082815260200191505060405180910390f35b6112416130fe565b005b34801561124f57600080fd5b506112586131bb565b6040518082815260200191505060405180910390f35b34801561127a57600080fd5b506113346004803603602081101561129157600080fd5b81019080803590602001906401000000008111156112ae57600080fd5b8201836020820111156112c057600080fd5b803590602001918460018302840111640100000000831117156112e257600080fd5b91908080601f016020809104026020016040519081016040528093929190818152602001838380828437600081840152601f19601f8201169050808301925050505050505091929192905050506131c5565b6040518082815260200191505060405180910390f35b34801561135657600080fd5b5061135f61326a565b6040518082815260200191505060405180910390f35b34801561138157600080fd5b5061138a613274565b604051808273ffffffffffffffffffffffffffffffffffffffff1673ffffffffffffffffffffffffffffffffffffffff16815260200191505060405180910390f35b3480156113d857600080fd5b506113e161329a565b005b3480156113ef57600080fd5b506114a66004803603602081101561140657600080fd5b810190808035906020019064010000000081111561142357600080fd5b82018360208201111561143557600080fd5b8035906020019184602083028401116401000000008311171561145757600080fd5b919080806020026020016040519081016040528093929190818152602001838360200280828437600081840152601f19601f820116905080830192505050505050509192919290505050613527565b6040518082815260200191505060405180910390f35b3480156114c857600080fd5b506114d16135e9565b604051808273ffffffffffffffffffffffffffffffffffffffff1673ffffffffffffffffffffffffffffffffffffffff16815260200191505060405180910390f35b6000600e543481151561152257fe5b061415156115be576040517f08c379a000000000000000000000000000000000000000000000000000000000815260040180806020018281038252602e8152602001807f6d6f6e65792075706c6f61646564206e6f742061206d756c7469706c6965722081526020017f6f662075706c6f6164507269636500000000000000000000000000000000000081525060400191505060405180910390fd5b34600d60008282540192505081905550565b6000601154348115156115df57fe5b0614151561167b576040517f08c379a00000000000000000000000000000000000000000000000000000000081526004018080602001828103825260318152602001807f6d6f6e65792075706c6f61646564206e6f742061206d756c7469706c6965722081526020017f6f66206368616c6c656e6765507269636500000000000000000000000000000081525060400191505060405180910390fd5b34601060008282540192505081905550565b600460009054906101000a900473ffffffffffffffffffffffffffffffffffffffff1673ffffffffffffffffffffffffffffffffffffffff163373ffffffffffffffffffffffffffffffffffffffff16141515611778576040517f08c379a00000000000000000000000000000000000000000000000000000000081526004018080602001828103825260238152602001807f4f6e6c792070726f76696465722063616e2063616c6c2074686973206d65746881526020017f6f642e000000000000000000000000000000000000000000000000000000000081525060400191505060405180910390fd5b600080600581111561178657fe5b601560009054906101000a900460ff1660058111156117a157fe5b141515611816576040517f08c379a000000000000000000000000000000000000000000000000000000000815260040180806020018281038252600f8152602001807f496e76616c6964207374617475732e000000000000000000000000000000000081525060200191505060405180910390fd5b600654341415156118b5576040517f08c379a000000000000000000000000000000000000000000000000000000000815260040180806020018281038252602e8152602001807f47756172616e746565206973206e6f7420657175616c20746f2077686174206881526020017f6173206265656e2061677265656400000000000000000000000000000000000081525060400191505060405180910390fd5b6002601560006101000a81548160ff021916908360058111156118d457fe5b02179055506103e84202600881905550600754600854016009819055507fa6fab28ddd84cab897063d4c37688841fb9e1fe1df5a7e9a3022d746c8c902f830604051808273ffffffffffffffffffffffffffffffffffffffff1673ffffffffffffffffffffffffffffffffffffffff16815260200191505060405180910390a150565b600360009054906101000a900473ffffffffffffffffffffffffffffffffffffffff1673ffffffffffffffffffffffffffffffffffffffff163373ffffffffffffffffffffffffffffffffffffffff16141515611a42576040517f08c379a00000000000000000000000000000000000000000000000000000000081526004018080602001828103825260218152602001807f4f6e6c7920436c69656e742063616e2063616c6c2074686973206d6574686f6481526020017f2e0000000000000000000000000000000000000000000000000000000000000081525060400191505060405180910390fd5b6002806005811115611a5057fe5b601560009054906101000a900460ff166005811115611a6b57fe5b141515611ae0576040517f08c379a000000000000000000000000000000000000000000000000000000000815260040180806020018281038252600f8152602001807f496e76616c6964207374617475732e000000000000000000000000000000000081525060200191505060405180910390fd5b6009546207a1206103e8420201101515611b88576040517f08c379a00000000000000000000000000000000000000000000000000000000081526004018080602001828103825260338152602001807f4e6f2074696d6520666f72207468652070726f766964657220746f206769766581526020017f20746865206e657874206f6e652070726f6f660000000000000000000000000081525060400191505060405180910390fd5b611b998a8a8a8a8a8a8a8a8a61251e565b1515611c0d576040517f08c379a000000000000000000000000000000000000000000000000000000000815260040180806020018281038252601b8152602001807f5369676e61747572657320617265206e6f742076616c6964212121000000000081525060200191505060405180910390fd5b611c1a8888888686612258565b151515611cb5576040517f08c379a000000000000000000000000000000000000000000000000000000000815260040180806020018281038252603e8152602001807f5468652070726f6f6620676976656e20697320636f7272656374206e6f206e6581526020017f656420746f206368616c6c656e6765207468652070726f76696465722121000081525060400191505060405180910390fd5b60026014541015611d9d57601460008154809291906001019190505550601354600654036006819055506207a1206103e842020160008190555087601781905550826019819055506005601560006101000a81548160ff02191690836005811115611d1c57fe5b02179055507fac1ea07aa41f0e11f37ceff5e135bfa9eca704474a950dbd86c19dc88f6dbd4630601954600054604051808473ffffffffffffffffffffffffffffffffffffffff1673ffffffffffffffffffffffffffffffffffffffff168152602001838152602001828152602001935050505060405180910390a1611dd7565b7f61f9692613d425d8c7e16a54c5f0c23aa24e0ad1990696063268a981348a11596002546040518082815260200191505060405180910390a15b50505050505050505050565b6000611def8383613613565b905092915050565b6000600854905090565b6000828260405160200180807f30783030000000000000000000000000000000000000000000000000000000008152506004018381526020018281526020019250505060405160208183030381529060405280519060200120905080905092915050565b600080888888888888886040516020018088815260200187805190602001908083835b602083101515611ead5780518252602082019150602081019050602083039250611e88565b6001836020036101000a0380198251168184511680821785525050505050509050018681526020018581526020018481526020018381526020018281526020019750505050505050506040516020818303038152906040528051906020012090508060405160200180807f19457468657265756d205369676e6564204d6573736167653a0a333200000000815250601c0182815260200191505060405160208183030381529060405280519060200120915081915050979650505050505050565b60008084848460405160200180848152602001838152602001828152602001935050505060405160208183030381529060405280519060200120905060008160405160200180807f19457468657265756d205369676e6564204d6573736167653a0a333200000000815250601c018281526020019150506040516020818303038152906040528051906020012090506000612009828a613613565b90506000612017838a613613565b9050600360009054906101000a900473ffffffffffffffffffffffffffffffffffffffff1673ffffffffffffffffffffffffffffffffffffffff168273ffffffffffffffffffffffffffffffffffffffff161480156120c35750600460009054906101000a900473ffffffffffffffffffffffffffffffffffffffff1673ffffffffffffffffffffffffffffffffffffffff168173ffffffffffffffffffffffffffffffffffffffff16145b156120d55760019450505050506120de565b60009450505050505b95945050505050565b60008060058111156120f557fe5b601560009054906101000a900460ff16600581111561211057fe5b141561211f5760009050612255565b6001600581111561212c57fe5b601560009054906101000a900460ff16600581111561214757fe5b14156121565760019050612255565b6002600581111561216357fe5b601560009054906101000a900460ff16600581111561217e57fe5b141561218d5760029050612255565b6003600581111561219a57fe5b601560009054906101000a900460ff1660058111156121b557fe5b14156121c45760039050612255565b600460058111156121d157fe5b601560009054906101000a900460ff1660058111156121ec57fe5b14156121fb5760049050612255565b60058081111561220757fe5b601560009054906101000a900460ff16600581111561222257fe5b14156122315760059050612255565b7fffffffffffffffffffffffffffffffffffffffffffffffffffffffffffffffff90505b90565b60008183111515156122f8576040517f08c379a00000000000000000000000000000000000000000000000000000000081526004018080602001828103825260318152602001807f70726f6f66496e6465782063616e6e6f7420626520626967676572207468616e81526020017f206e756d626572206f66204c656176657300000000000000000000000000000081525060400191505060405180910390fd5b6000809050808551111515612375576040517f08c379a00000000000000000000000000000000000000000000000000000000081526004018080602001828103825260178152602001807f6361726566756c2070726f6f66536574206973206e696c00000000000000000081525060200191505060405180910390fd5b6000612380876131c5565b9050600182019150600060195490505b6001156124695760008360019060020a028460019060020a02888115156123b357fe5b04029050600060018560019060020a02830103905086811015156123d8575050612469565b8092508460018a51011115156123f657600095505050505050612515565b6001850360019060020a0282890310156124355761242e848a6001880381518110151561241f57fe5b90602001906020020151611e01565b935061245c565b612459896001870381518110151561244957fe5b9060200190602002015185611e01565b93505b6001850194505050612390565b60018503811415156124bb5782600188510111151561248e5760009350505050612515565b6124b28288600186038151811015156124a357fe5b90602001906020020151611e01565b91506001830192505b5b60018751018310156124f9576124ec87600185038151811015156124dc57fe5b9060200190602002015183611e01565b91506001830192506124bc565b8882141561250d5760019350505050612515565b600093505050505b95945050505050565b60008061252a87613527565b9050600061253d8a8a848a8a8a8a611e65565b9050600061254b828e613613565b90506000612559838e613613565b9050600360009054906101000a900473ffffffffffffffffffffffffffffffffffffffff1673ffffffffffffffffffffffffffffffffffffffff168273ffffffffffffffffffffffffffffffffffffffff161480156126055750600460009054906101000a900473ffffffffffffffffffffffffffffffffffffffff1673ffffffffffffffffffffffffffffffffffffffff168173ffffffffffffffffffffffffffffffffffffffff16145b15612617576001945050505050612620565b60009450505050505b9998505050505050505050565b6000600654905090565b600460009054906101000a900473ffffffffffffffffffffffffffffffffffffffff1673ffffffffffffffffffffffffffffffffffffffff163373ffffffffffffffffffffffffffffffffffffffff16141515612722576040517f08c379a00000000000000000000000000000000000000000000000000000000081526004018080602001828103825260238152602001807f4f6e6c792070726f76696465722063616e2063616c6c2074686973206d65746881526020017f6f642e000000000000000000000000000000000000000000000000000000000081525060400191505060405180910390fd5b600580600581111561273057fe5b601560009054906101000a900460ff16600581111561274b57fe5b1415156127c0576040517f08c379a000000000000000000000000000000000000000000000000000000000815260040180806020018281038252600f8152602001807f496e76616c6964207374617475732e000000000000000000000000000000000081525060200191505060405180910390fd5b601754871480156127d2575060195484145b151561286c576040517f08c379a00000000000000000000000000000000000000000000000000000000081526004018080602001828103825260378152602001807f6d65726b6c65526f6f74206f722070726f6f66496e64657820206973206e6f7481526020017f207468652073616d65206265206361726566756c21212100000000000000000081525060400191505060405180910390fd5b6000546103e8420210151561290f576040517f08c379a000000000000000000000000000000000000000000000000000000000815260040180806020018281038252602f8152602001807f596f75722074696d6520746f20616e7377657220746865206368616c6c656e6781526020017f652068617320706173736564212121000000000000000000000000000000000081525060400191505060405180910390fd5b61291c8989898587611f6e565b1515612990576040517f08c379a000000000000000000000000000000000000000000000000000000000815260040180806020018281038252601b8152602001807f5369676e61747572657320617265206e6f742076616c6964212121000000000081525060200191505060405180910390fd5b6018548211156129c3576002601560006101000a81548160ff021916908360058111156129b957fe5b0217905550612a5d565b6129d08787878787612258565b156129fe576002601560006101000a81548160ff021916908360058111156129f457fe5b0217905550612a5c565b6004601560006101000a81548160ff02191690836005811115612a1d57fe5b02179055507f61f9692613d425d8c7e16a54c5f0c23aa24e0ad1990696063268a981348a11596002546040518082815260200191505060405180910390a15b5b505050505050505050565b600360009054906101000a900473ffffffffffffffffffffffffffffffffffffffff1673ffffffffffffffffffffffffffffffffffffffff163373ffffffffffffffffffffffffffffffffffffffff16141515612b53576040517f08c379a00000000000000000000000000000000000000000000000000000000081526004018080602001828103825260218152602001807f4f6e6c7920436c69656e742063616e2063616c6c2074686973206d6574686f6481526020017f2e0000000000000000000000000000000000000000000000000000000000000081525060400191505060405180910390fd5b6002806005811115612b6157fe5b601560009054906101000a900460ff166005811115612b7c57fe5b141515612bf1576040517f08c379a000000000000000000000000000000000000000000000000000000000815260040180806020018281038252600f8152602001807f496e76616c6964207374617475732e000000000000000000000000000000000081525060200191505060405180910390fd5b6018548310151515612c91576040517f08c379a00000000000000000000000000000000000000000000000000000000081526004018080602001828103825260248152602001807f55706c6f6164656420616e206f6c64207265766973696f6e2c2062652063617281526020017f6566756c0000000000000000000000000000000000000000000000000000000081525060400191505060405180910390fd5b6009546207a1206103e8420201101515612d39576040517f08c379a00000000000000000000000000000000000000000000000000000000081526004018080602001828103825260338152602001807f4e6f2074696d6520666f72207468652070726f766964657220746f206769766581526020017f20746865206e657874206f6e652070726f6f660000000000000000000000000081525060400191505060405180910390fd5b612d468686868686611f6e565b1515612dba576040517f08c379a000000000000000000000000000000000000000000000000000000000815260040180806020018281038252601b8152602001807f5369676e61747572657320617265206e6f742076616c6964212121000000000081525060200191505060405180910390fd5b82601881905550816103e84202811515612dd057fe5b066019819055506207a1206103e8420201600081905550836017819055506005601560006101000a81548160ff02191690836005811115612e0d57fe5b02179055507fac1ea07aa41f0e11f37ceff5e135bfa9eca704474a950dbd86c19dc88f6dbd4630601954600054604051808473ffffffffffffffffffffffffffffffffffffffff1673ffffffffffffffffffffffffffffffffffffffff168152602001838152602001828152602001935050505060405180910390a1505050505050565b6000600360009054906101000a900473ffffffffffffffffffffffffffffffffffffffff16905090565b600460009054906101000a900473ffffffffffffffffffffffffffffffffffffffff1673ffffffffffffffffffffffffffffffffffffffff163373ffffffffffffffffffffffffffffffffffffffff16141515612fa6576040517f08c379a00000000000000000000000000000000000000000000000000000000081526004018080602001828103825260238152602001807f4f6e6c792070726f76696465722063616e2063616c6c2074686973206d65746881526020017f6f642e000000000000000000000000000000000000000000000000000000000081525060400191505060405180910390fd5b6005806005811115612fb457fe5b601560009054906101000a900460ff166005811115612fcf57fe5b141515613044576040517f08c379a000000000000000000000000000000000000000000000000000000000815260040180806020018281038252600f8152602001807f496e76616c6964207374617475732e000000000000000000000000000000000081525060200191505060405180910390fd5b6000546103e842021115156130e7576040517f08c379a00000000000000000000000000000000000000000000000000000000081526004018080602001828103825260278152602001807f50726f766964657227732070726f6f662077696e646f77206973206e6f74206f81526020017f766572207965740000000000000000000000000000000000000000000000000081525060400191505060405180910390fd5b50565b6000600754905090565b6000600954905090565b6000600b543481151561310d57fe5b061415156131a9576040517f08c379a00000000000000000000000000000000000000000000000000000000081526004018080602001828103825260308152602001807f6d6f6e65792075706c6f61646564206e6f742061206d756c7469706c6965722081526020017f6f6620646f776e6c6f616450726963650000000000000000000000000000000081525060400191505060405180910390fd5b34600a60008282540192505081905550565b6000600554905090565b60008160405160200180807f307830300000000000000000000000000000000000000000000000000000000081525060040182805190602001908083835b6020831015156132285780518252602082019150602081019050602083039250613203565b6001836020036101000a038019825116818451168082178552505050505050905001915050604051602081830303815290604052805190602001209050919050565b6000600254905090565b601560019054906101000a900473ffffffffffffffffffffffffffffffffffffffff1681565b600360009054906101000a900473ffffffffffffffffffffffffffffffffffffffff1673ffffffffffffffffffffffffffffffffffffffff163373ffffffffffffffffffffffffffffffffffffffff16141515613385576040517f08c379a00000000000000000000000000000000000000000000000000000000081526004018080602001828103825260218152602001807f4f6e6c7920436c69656e742063616e2063616c6c2074686973206d6574686f6481526020017f2e0000000000000000000000000000000000000000000000000000000000000081525060400191505060405180910390fd5b600080600581111561339357fe5b601560009054906101000a900460ff1660058111156133ae57fe5b141515613423576040517f08c379a000000000000000000000000000000000000000000000000000000000815260040180806020018281038252600f8152602001807f496e76616c6964207374617475732e000000000000000000000000000000000081525060200191505060405180910390fd5b61342b613879565b601660009054906101000a900473ffffffffffffffffffffffffffffffffffffffff1673ffffffffffffffffffffffffffffffffffffffff1663df6c3a79306040518263ffffffff167c0100000000000000000000000000000000000000000000000000000000028152600401808273ffffffffffffffffffffffffffffffffffffffff1673ffffffffffffffffffffffffffffffffffffffff168152602001915050602060405180830381600087803b1580156134e857600080fd5b505af11580156134fc573d6000803e3d6000fd5b505050506040513d602081101561351257600080fd5b81019080805190602001909291905050505050565b6000606060008090505b83518110156135d55781848281518110151561354957fe5b906020019060200201516040516020018083805190602001908083835b60208310151561358b5780518252602082019150602081019050602083039250613566565b6001836020036101000a0380198251168184511680821785525050505050509050018281526020019250505060405160208183030381529060405291508080600101915050613531565b508080519060200120915081915050919050565b6000600460009054906101000a900473ffffffffffffffffffffffffffffffffffffffff16905090565b60006041825114151561368e576040517f08c379a00000000000000000000000000000000000000000000000000000000081526004018080602001828103825260208152602001807f4543445341203a20496e76616c6964207369676e6174757265206c656e67746881525060200191505060405180910390fd5b60008060006020850151925060408501519150606085015160001a9050601b8160ff16141580156136c35750601c8160ff1614155b1561375c576040517f08c379a00000000000000000000000000000000000000000000000000000000081526004018080602001828103825260238152602001807f4543445341203a20696e76616c6964207369676e61747572652027762720766181526020017f6c7565000000000000000000000000000000000000000000000000000000000081525060400191505060405180910390fd5b600060018783868660405160008152602001604052604051808581526020018460ff1660ff1681526020018381526020018281526020019450505050506020604051602081039080840390855afa1580156137bb573d6000803e3d6000fd5b505050602060405103519050600073ffffffffffffffffffffffffffffffffffffffff168173ffffffffffffffffffffffffffffffffffffffff161415151561386c576040517f08c379a00000000000000000000000000000000000000000000000000000000081526004018080602001828103825260198152602001807f4543445341203a20696e76616c6964207369676e61747572650000000000000081525060200191505060405180910390fd5b8094505050505092915050565b600360009054906101000a900473ffffffffffffffffffffffffffffffffffffffff1673ffffffffffffffffffffffffffffffffffffffff163373ffffffffffffffffffffffffffffffffffffffff16141515613964576040517f08c379a00000000000000000000000000000000000000000000000000000000081526004018080602001828103825260218152602001807f4f6e6c7920436c69656e742063616e2063616c6c2074686973206d6574686f6481526020017f2e0000000000000000000000000000000000000000000000000000000000000081525060400191505060405180910390fd5b600080600581111561397257fe5b601560009054906101000a900460ff16600581111561398d57fe5b141515613a02576040517f08c379a000000000000000000000000000000000000000000000000000000000815260040180806020018281038252600f8152602001807f496e76616c6964207374617475732e000000000000000000000000000000000081525060200191505060405180910390fd5b6001601560006101000a81548160ff02191690836005811115613a2157fe5b02179055503373ffffffffffffffffffffffffffffffffffffffff166108fc3073ffffffffffffffffffffffffffffffffffffffff16319081150290604051600060405180830381858888f19350505050158015613a83573d6000803e3d6000fd5b505056fea165627a7a7230582053d9aa540a73358981da135b88ec58a73fc05e28aee82725f17ece7c3a7ac6bb0029",
  "source": "pragma solidity ^0.5.0;\n\nimport {ECDSA} from \"../ECDSA.sol\";\nimport \"../AgoraContract.sol\";\n\ncontract StorageAgreement  is AgoraContract{\n\t\n\t//the merkleRoot of the sector roots \n\tbytes32 storageRoot;\n\n\t//Events\n\tevent StorageTaskCreated(bytes32 taskID, address storageContractAddress);\n\tevent ContractActivated(address storageContractAddress);\n\tevent ContractChallenged(address storageContractAddress, uint proofIndex, uint expDate);\n\n\t//mapping for checking a revision\n\n\t//mapping (uint => bool) public revision;\n\tuint latestRevisionChallenged;\n\t//proofIndex of the challenged\n\tuint proofIndex;\n\n\n\tconstructor(\n\t\tbytes32 _taskID,\n\t\taddress payable _client,\n\t\taddress payable _provider,\n\t\tuint _payment,\n\t\tuint _guarantee,\n\t\tuint _duration,\n\t\taddress _contractsRegistry\t\n\t) AgoraContract(_taskID, _client, _provider, _payment, _guarantee, _duration, _contractsRegistry)\n\t\tpublic \n\t\tpayable\n\t{\n\t\tregistry.registerStorageContract(address(this));\n\t\temit StorageTaskCreated(taskID, address(this));\n\t\n\t}\n\n\tfunction computeMsgHash(bytes32 _merkleRoot, bytes memory _data, bytes32 _proofSet, uint _fileContractSize, uint _myRevision, uint _proofIndex, uint _numLeaves) public pure returns (bytes32 keccakHash){\n\t\tbytes32 hash = keccak256(abi.encodePacked(_merkleRoot, _data, _proofSet, _fileContractSize, _myRevision, _proofIndex, _numLeaves));\n\t\tkeccakHash = keccak256(abi.encodePacked(\"\\x19Ethereum Signed Message:\\n32\", hash));\n\t\treturn keccakHash;\t\n\t}\n\n\tfunction bytesHash(bytes memory _msg) public pure returns (bytes32) {\n\t\treturn keccak256(abi.encodePacked(\"0x00\", _msg));\n\t}\n\n\tfunction nodeSum(bytes32 a, bytes32 b) public pure returns(bytes32 hash){\n\t\thash = keccak256(abi.encodePacked(\"0x00\", a, b));\t\n\t\treturn hash;\n\t}\n\n\t//activation is called from the provider\n\t//i need to fix it maybe to have an activation limit time.\n\tfunction activate() \n\t\tpublic\n\t\tpayable\n\t\trequiresProvider()\n\t\trequiresStatus(Status.Inactive)\n\t{\n\t\trequire(\n\t\t\tmsg.value == guarantee,\n\t\t\t\"Guarantee is not equal to what has been agreed\"\t\n\t\t);\t\n\n\t\tstatus = Status.Active;\n\t\tactivateDate = block.timestamp * 1000;\n\t\tendDate = activateDate + duration;\n\n\t\temit ContractActivated(address(this));\t\n\t}\n\n\n\t// i need to make it payable so the client uploads also the challenge reward in case the provider succesfully uploads the proof\n\tfunction challengeProvider(\n\t\tbytes memory signatureClient, \n\t\tbytes memory signatureProvider, \n\t\tbytes32 _merkleRoot, \n\t\t//uint _fileContractSize, \n\t\tuint _revisionNumber,\n\t\tuint _numLeaves\n\t)\n\t\tpublic\n\t\trequiresClient()\n\t\trequiresStatus(Status.Active)\n\t{\n\t\trequire(_revisionNumber >= latestRevisionChallenged, \"Uploaded an old revision, be careful\");\n\t\trequire((block.timestamp * 1000 + challengeTime < endDate), \"No time for the provider to give the next one proof\");\n\t\trequire(verifySignaturesChallenge(signatureClient, signatureProvider, _merkleRoot, _revisionNumber, _numLeaves), \"Signatures are not valid!!!\");\t\n\n\t\t//save the revision number\n\t\tlatestRevisionChallenged = _revisionNumber;\n\n\t\tproofIndex = (block.timestamp * 1000) % _numLeaves;\n\n\t\tchallengeExpirationDate = (block.timestamp * 1000) + challengeTime;\n\t\tstorageRoot = _merkleRoot;\n\n\t\t//The contract status will be changed to challenged\n\t\tstatus = Status.Challenged;\n\n\t\t//now the provider has a specific amount of time to upload the next challenge proof\n\t\temit ContractChallenged(address(this), proofIndex, challengeExpirationDate);\n\n\n\t}\n\n\t//This function can be called by the client in case the provider sends an offchain wrong merkle proof.\n\tfunction challengeProviderAfterWrongProof(\n\t\tbytes memory signatureClient, \n\t\tbytes memory signatureProvider, \n\t\tbytes32 _merkleRoot, \n\t\tbytes memory _data, \n\t\tbytes32[] memory _proofSet, \n\t\tuint _fileContractSize, \n\t\tuint _revisionNumber,\n\t\tuint _proofIndex,\n\t\tuint _numLeaves\n\t)\n\t\tpublic\n\t\trequiresClient()\n\t\trequiresStatus(Status.Active)\n\t{\n\t\trequire((block.timestamp * 1000 + challengeTime < endDate), \"No time for the provider to give the next one proof\");\n\t\trequire(verifySignatures(signatureClient, signatureProvider, _merkleRoot, _data, _proofSet, _fileContractSize, _revisionNumber, _proofIndex, _numLeaves), \"Signatures are not valid!!!\");\n\t\trequire(!verifyProof(_merkleRoot, _data, _proofSet, _proofIndex, _numLeaves), \"The proof given is correct no need to challenge the provider!!\");\t\n\t\t\n\t\tif (proofsMissed < 2) {\n\t\t\tproofsMissed ++;\n\t\t\t//penalty is taken from the guarantee \n\t\t\tguarantee = guarantee - penalty;\t\n\t\t\t//here is gonna send the next proofIndex that the provider will have to prove .\n\t\t\t//uint proofIndex = (block.timestamp * 1000)% _numLeaves; \n\n\t\t\tchallengeExpirationDate = (block.timestamp * 1000) + challengeTime;\n\n\t\t\tstorageRoot = _merkleRoot;\t\n\t\t\tproofIndex = _proofIndex;\n\t\t\t\n\t\t\t//The contract status is set to challenged\n\t\t\tstatus = Status.Challenged;\n\n\t\t\t//so the provider now has a specific amount of time to upload the next challenge proof.\n\t\t\temit ContractChallenged(address(this), proofIndex, challengeExpirationDate);\n\t\t} else {\n\t\t\t//invalidate the contract, provider loses all the guarantee and also does not get paid. \t\n\t\t\temit TaskInvalidate(taskID);\n\t\t}\n\t\n\t}\n\n\tfunction asnwerChallenge(\n\t\tbytes memory signatureClient, \n\t\tbytes memory signatureProvider,\n\t\tbytes32 _merkleRoot,\n\t\tbytes memory _data,\n\t\tbytes32[] memory _proofSet,\n\t\tuint _proofIndex,\n\t\tuint _numLeaves,\n\t\tuint _revisionNumber\t\n\t) \n\t\tpublic \n\t\trequiresProvider()\n\t\trequiresStatus(Status.Challenged)\t\n\t{\n\t\t\n\t\trequire((_merkleRoot == storageRoot) && (_proofIndex == proofIndex), \"merkleRoot or proofIndex  is not the same be careful!!!\");\t\n\t\trequire(block.timestamp * 1000 < challengeExpirationDate, \"Your time to answer the challenge has passed!!!\"); \n\t\trequire(verifySignaturesChallenge(signatureClient, signatureProvider, _merkleRoot, _revisionNumber, _numLeaves), \"Signatures are not valid!!!\");\t\n\t\n\n\t\t//Check if renter has tried to check an older revision\n\t\tif (_revisionNumber > latestRevisionChallenged) {\n\t\t\t//maybe a penalty for the renter and a reward for the provider\n\t\t\tstatus = Status.Active;\t\n\t\t} else {\t\n\t\t\tif (verifyProof(_merkleRoot, _data, _proofSet, _proofIndex, _numLeaves)) {\n\t\t\t\tstatus = Status.Active;\t\n\t\t\t} else {\n\t\t\t\t//invalidate the contract as it is the second time that the provider fails to submit a correct proof \n\t\t\t\tstatus = Status.Invalid;\n\t\t\t\t//call the invalidation function\n\t\t\t\t//return payment back to renter\n\t\t\t\t\n\t\t\t\temit TaskInvalidate(taskID);\n\t\t\t}\n\t\t}\t\n\t}\n\n\n\n\tfunction verifySignaturesChallenge(\n\t\tbytes memory signatureClient,\n\t\tbytes memory signatureProvider,\n\t\tbytes32 _merkleRoot,\n\t\tuint _revision,\n\t\tuint _numLeaves\n\t) public returns(bool)\n\t{\n\t//\trequire(!revision[_revision], \"This revision has already been challenged\");\t\n\n\t\tbytes32 hash = keccak256(abi.encodePacked(_merkleRoot, _revision, _numLeaves));\n\t\tbytes32 keccakHash = keccak256(abi.encodePacked(\"\\x19Ethereum Signed Message:\\n32\", hash));\n\t\t\n\t\taddress _client = ECDSA.recover(keccakHash, signatureClient);\n\t\taddress _provider = ECDSA.recover(keccakHash, signatureProvider);\n\n\t\tif (_client == client && _provider == provider){\n\t\t\treturn true;\t\n\t\t} else {\n\t\t\treturn false;\t\n\t\t}\n\n\n\t}\t\n\n\n\tfunction verifySignatures(\n\t\tbytes memory signatureClient, \n\t\tbytes memory signatureProvider, \n\t\tbytes32 _merkleRoot, \n\t\tbytes memory _data, \n\t\tbytes32[] memory _proofSet, \t\n\t\tuint _fileContractSize, \n\t\tuint _revision,\n\t\tuint _proofIndex,\n\t\tuint _numLeaves\n\t)\n\t\tpublic returns(bool) \n\t{\n\t//\trequire(!revision[_revision], \"This revision has already been challenged\");\t\t\n\t//`\trevision[_revision] = true;\n\t\t\n\t\tbytes32 proofSetHash = calculateArrayHash(_proofSet);\n\t\tbytes32 hash = computeMsgHash(_merkleRoot, _data, proofSetHash, _fileContractSize, _revision, _proofIndex, _numLeaves);\n\t\taddress _client = ECDSA.recover(hash, signatureClient);\n\t\taddress _provider = ECDSA.recover(hash, signatureProvider);\n\n\t\tif (_client == client && _provider == provider){\n\t\t\treturn true;\t\n\t\t} else {\n\t\t\treturn false;\t\n\t\t}\n\t}\t\n\n\tfunction calculateArrayHash(bytes32[] memory _proofSet) public view returns(bytes32 hash){\n\t\tbytes memory data;\n\t\tfor (uint i = 0; i < _proofSet.length; i++){\n\t\t\tdata = abi.encodePacked(data, _proofSet[i]);\t\n\t\t}\t\t\n\t\thash = keccak256(data);\t\n\t\treturn hash;\n\t}\n\n\n\tfunction verifyProof( bytes32 merkleRoot, bytes memory data, bytes32[] memory proofSet, uint prIndex, uint numLeaves) public view returns(bool){\n\t\trequire(prIndex <= numLeaves, \"proofIndex cannot be bigger than number of Leaves\");\n        \tuint height = 0;\n                require(proofSet.length > height, \"careful proofSet is nil\");\n                bytes32 sum = bytesHash(data);\n               \theight = height + 1;\n                uint stableEnd = proofIndex;\n \n        \twhile(true) {\n                \tuint subTreeStartIndex = (prIndex / (1 << height)) * (1 << height);\n                        uint subTreeEndIndex = subTreeStartIndex + (1 << (height)) - 1;\n                        if (subTreeEndIndex >= numLeaves) {\n                \t        break;\n                        }\n                        stableEnd = subTreeEndIndex;\n \n                        if (proofSet.length + 1<= height){\n                        \treturn (false);\n                        }\n                        if ((prIndex - subTreeStartIndex) < (1 << (height - 1))){\n                \t        sum = nodeSum(sum, proofSet[height - 1]);\n                       \t} else {\n                        \tsum = nodeSum(proofSet[height - 1], sum);\n                        }\n                        height = height + 1;\n      \t\t}\n\n\t\tif (stableEnd != (numLeaves-1)) {\n\t\tif (proofSet.length + 1 <= height) {\n\t        \treturn (false);\n\t\t}\n\t\tsum = nodeSum(sum, proofSet[height - 1]);\n\t        height = height + 1;\n\t\t\t\t                        }\n\t\t\t         \n\t\twhile(height < proofSet.length + 1){\n\t\t\tsum = nodeSum(proofSet[height - 1], sum);\n\t\t\theight = height + 1;\n\t        }\n\t\n\t\tif(sum == merkleRoot){\n\t\t\treturn (true);\n\t\t}\n\t\treturn (false);\n\t}\n\n\n\tfunction uploadDeposit() public payable {\n\t\trequire((msg.value % uploadPrice) == 0, \"money uploaded not a multiplier of uploadPrice\");\t\n\t\tuploadPayment += msg.value;\n\t}\n\n\tfunction downloadDeposit() public payable {\n\t\trequire((msg.value % downloadPrice) == 0 , \"money uploaded not a multiplier of downloadPrice\");\t\n\t\tdownloadPayment += msg.value;\n\t}\n\n\tfunction challengeDeposit() public payable {\n\t\trequire((msg.value % challengePrice == 0), \"money uploaded not a multiplier of challengePrice\");\n\t\tchallengePayment += msg.value;\t\n\t}\n\n\tfunction recover(bytes32 hash, bytes memory signature) public pure returns (address) {\n\t\treturn ECDSA.recover(hash, signature);\t\n\t}\n\n\t//cancel can be called by the client at any point before provider activates the contract\n\tfunction cancel() \n\t\tpublic \n\t\trequiresClient\n\t\trequiresStatus(Status.Inactive)\n\t{\n\t\tsuper.cancel();\n\t\tregistry.deleteStorageContract(address(this));\t\n\t}\n\n\tfunction invalidate()\n\t\tpublic\n\t\trequiresProvider\n\t\trequiresStatus(Status.Challenged)\n\t{\n\t\trequire(block.timestamp * 1000 > challengeExpirationDate, \"Provider's proof window is not over yet\");\t\n\t}\n\t\n\n\n\n\n\n\n\n\n}\n",
  "sourcePath": "/home/fotis/truffle-example/contracts/storage/StorageAgreement.sol",
  "compiler": {
    "name": "solc",
    "version": "0.5.0+commit.1d4f565a.Emscripten.clang"
  },
  "schemaVersion": "3.2.3",
  "updatedAt": "2021-05-25T16:29:17.806Z",
  "devdoc": {
    "methods": {}
  },
  "userdoc": {
    "methods": {}
  }
}