{
  "contractName": "tdryecdsa2",
  "abi": [
    {
      "constant": true,
      "inputs": [],
      "name": "getResult",
      "outputs": [
        {
          "name": "sum",
          "type": "uint256"
        }
      ],
      "payable": false,
      "stateMutability": "pure",
      "type": "function"
    },
    {
      "constant": true,
      "inputs": [
        {
          "name": "signature",
          "type": "bytes"
        },
        {
          "name": "_msg",
          "type": "string"
        },
        {
          "name": "_revision",
          "type": "uint256"
        }
      ],
      "name": "verify",
      "outputs": [
        {
          "name": "",
          "type": "bool"
        }
      ],
      "payable": false,
      "stateMutability": "view",
      "type": "function"
    },
    {
      "constant": true,
      "inputs": [
        {
          "name": "my_msg",
          "type": "string"
        },
        {
          "name": "revision",
          "type": "uint256"
        }
      ],
      "name": "computeMsgHash",
      "outputs": [
        {
          "name": "keccakHash",
          "type": "bytes32"
        }
      ],
      "payable": false,
      "stateMutability": "pure",
      "type": "function"
    }
  ],
  "bytecode": "0x608060405234801561001057600080fd5b506106e0806100206000396000f3fe608060405260043610610057576000357c0100000000000000000000000000000000000000000000000000000000900463ffffffff168063de2927891461005c578063f7c53aae14610087578063f8d7769f1461016d575b600080fd5b34801561006857600080fd5b506100716102ee565b6040518082815260200191505060405180910390f35b34801561009357600080fd5b50610157600480360360408110156100aa57600080fd5b81019080803590602001906401000000008111156100c757600080fd5b8201836020820111156100d957600080fd5b803590602001918460018302840111640100000000831117156100fb57600080fd5b91908080601f016020809104026020016040519081016040528093929190818152602001838380828437600081840152601f19601f82011690508083019250505050505050919291929080359060200190929190505050610308565b6040518082815260200191505060405180910390f35b34801561017957600080fd5b506102d46004803603606081101561019057600080fd5b81019080803590602001906401000000008111156101ad57600080fd5b8201836020820111156101bf57600080fd5b803590602001918460018302840111640100000000831117156101e157600080fd5b91908080601f016020809104026020016040519081016040528093929190818152602001838380828437600081840152601f19601f8201169050808301925050505050505091929192908035906020019064010000000081111561024457600080fd5b82018360208201111561025657600080fd5b8035906020019184600183028401116401000000008311171561027857600080fd5b91908080601f016020809104026020016040519081016040528093929190818152602001838380828437600081840152601f19601f820116905080830192505050505050509192919290803590602001909291905050506103e4565b604051808215151515815260200191505060405180910390f35b600080600190506000600290508082019250829250505090565b60008083836040516020018083805190602001908083835b6020831015156103455780518252602082019150602081019050602083039250610320565b6001836020036101000a038019825116818451168082178552505050505050905001828152602001925050506040516020818303038152906040528051906020012090508060405160200180807f19457468657265756d205369676e6564204d6573736167653a0a333200000000815250601c018281526020019150506040516020818303038152906040528051906020012091508191505092915050565b6000806103f18484610308565b905060006103ff828761044e565b90503373ffffffffffffffffffffffffffffffffffffffff168173ffffffffffffffffffffffffffffffffffffffff16141561044057600192505050610447565b6000925050505b9392505050565b6000604182511415156104c9576040517f08c379a00000000000000000000000000000000000000000000000000000000081526004018080602001828103825260208152602001807f4543445341203a20496e76616c6964207369676e6174757265206c656e67746881525060200191505060405180910390fd5b60008060006020850151925060408501519150606085015160001a9050601b8160ff16141580156104fe5750601c8160ff1614155b15610597576040517f08c379a00000000000000000000000000000000000000000000000000000000081526004018080602001828103825260238152602001807f4543445341203a20696e76616c6964207369676e61747572652027762720766181526020017f6c7565000000000000000000000000000000000000000000000000000000000081525060400191505060405180910390fd5b600060018783868660405160008152602001604052604051808581526020018460ff1660ff1681526020018381526020018281526020019450505050506020604051602081039080840390855afa1580156105f6573d6000803e3d6000fd5b505050602060405103519050600073ffffffffffffffffffffffffffffffffffffffff168173ffffffffffffffffffffffffffffffffffffffff16141515156106a7576040517f08c379a00000000000000000000000000000000000000000000000000000000081526004018080602001828103825260198152602001807f4543445341203a20696e76616c6964207369676e61747572650000000000000081525060200191505060405180910390fd5b809450505050509291505056fea165627a7a72305820bb58cbdca2f34a0afe8a84d59d86d971c71fc63e4bc56d7706745c9b47e361730029",
  "source": "pragma solidity ^0.5.0;\n\nimport {ECDSA} from \"./ECDSA.sol\";\n\ncontract tdryecdsa2{\n\n\t//uint length;\n\n\tfunction getResult() public pure returns(uint sum){\n\t\tuint a = 1;\n\t\tuint b = 2;\n\t\tsum = a + b;\n\t\treturn sum;\n\t}\n\n\n\tfunction verify( bytes memory signature, string memory _msg, uint _revision) public view returns (bool ) {\n\t\t//require(hash == computeMsgHash(_msg, _revision), \"The hash is not produced from this message !!!\");\n\t\tbytes32 hash = computeMsgHash(_msg, _revision);\n\t\taddress _sender = ECDSA.recover(hash, signature);\n\t\tif (_sender == msg.sender) {\n\t\t\treturn true;\n\t\t} else {\n\t\t\treturn false;\n\t\t}\n\n\t}\n\n\n\tfunction computeMsgHash(string memory my_msg, uint revision) public pure returns (bytes32 keccakHash) {\n\t\tbytes32 hash = keccak256(abi.encodePacked(my_msg, revision));\n\t\tkeccakHash = keccak256(abi.encodePacked(\"\\x19Ethereum Signed Message:\\n32\", hash ));\n\t\t//_length = my_msg.length;\n\t\treturn keccakHash;\n\t}\n\n\n\n\n\n}\n",
  "sourcePath": "/home/fotis/truffle-example/contracts/tryecdsa2.sol",
  "compiler": {
    "name": "solc",
    "version": "0.5.0+commit.1d4f565a.Emscripten.clang"
  },
  "schemaVersion": "3.2.3",
  "updatedAt": "2020-10-19T18:12:44.657Z",
  "devdoc": {
    "methods": {}
  },
  "userdoc": {
    "methods": {}
  }
}