{
  "contractName": "tryecdsa2",
  "abi": [
    {
      "constant": true,
      "inputs": [
        {
          "name": "",
          "type": "uint256"
        }
      ],
      "name": "revision",
      "outputs": [
        {
          "name": "",
          "type": "bool"
        }
      ],
      "payable": false,
      "stateMutability": "view",
      "type": "function"
    },
    {
      "anonymous": false,
      "inputs": [],
      "name": "contractChallenged",
      "type": "event"
    },
    {
      "anonymous": false,
      "inputs": [
        {
          "indexed": false,
          "name": "data",
          "type": "bytes"
        }
      ],
      "name": "pipes",
      "type": "event"
    },
    {
      "anonymous": false,
      "inputs": [
        {
          "indexed": false,
          "name": "payment",
          "type": "uint256"
        }
      ],
      "name": "dep",
      "type": "event"
    },
    {
      "anonymous": false,
      "inputs": [
        {
          "indexed": false,
          "name": "taskID",
          "type": "bytes32"
        },
        {
          "indexed": false,
          "name": "duration",
          "type": "uint256"
        }
      ],
      "name": "auction",
      "type": "event"
    },
    {
      "anonymous": false,
      "inputs": [],
      "name": "setAddress",
      "type": "event"
    },
    {
      "anonymous": false,
      "inputs": [
        {
          "indexed": false,
          "name": "proofSetHash",
          "type": "bytes32"
        },
        {
          "indexed": false,
          "name": "msgHash",
          "type": "bytes32"
        },
        {
          "indexed": false,
          "name": "client",
          "type": "address"
        },
        {
          "indexed": false,
          "name": "provider",
          "type": "address"
        }
      ],
      "name": "hashes",
      "type": "event"
    },
    {
      "anonymous": false,
      "inputs": [
        {
          "indexed": false,
          "name": "mesgHash",
          "type": "bytes32"
        }
      ],
      "name": "messageHash",
      "type": "event"
    },
    {
      "anonymous": false,
      "inputs": [
        {
          "indexed": true,
          "name": "user",
          "type": "uint256"
        },
        {
          "indexed": true,
          "name": "sender",
          "type": "address"
        }
      ],
      "name": "test",
      "type": "event"
    },
    {
      "constant": true,
      "inputs": [
        {
          "name": "_msg",
          "type": "bytes"
        }
      ],
      "name": "getResult",
      "outputs": [
        {
          "name": "hash",
          "type": "bytes32"
        }
      ],
      "payable": false,
      "stateMutability": "pure",
      "type": "function"
    },
    {
      "constant": true,
      "inputs": [],
      "name": "hasClosed",
      "outputs": [
        {
          "name": "",
          "type": "bool"
        }
      ],
      "payable": false,
      "stateMutability": "view",
      "type": "function"
    },
    {
      "constant": true,
      "inputs": [],
      "name": "returnCurrentBlockNumber",
      "outputs": [
        {
          "name": "",
          "type": "uint256"
        },
        {
          "name": "",
          "type": "uint256"
        },
        {
          "name": "",
          "type": "uint256"
        }
      ],
      "payable": false,
      "stateMutability": "view",
      "type": "function"
    },
    {
      "constant": true,
      "inputs": [
        {
          "name": "_data",
          "type": "bytes32"
        }
      ],
      "name": "printBytes",
      "outputs": [
        {
          "name": "",
          "type": "bytes32"
        }
      ],
      "payable": false,
      "stateMutability": "pure",
      "type": "function"
    },
    {
      "constant": true,
      "inputs": [
        {
          "name": "_msg",
          "type": "bytes"
        }
      ],
      "name": "bytesHash",
      "outputs": [
        {
          "name": "",
          "type": "bytes32"
        }
      ],
      "payable": false,
      "stateMutability": "pure",
      "type": "function"
    },
    {
      "constant": true,
      "inputs": [
        {
          "name": "_msg",
          "type": "string"
        }
      ],
      "name": "msgHash",
      "outputs": [
        {
          "name": "",
          "type": "bytes32"
        }
      ],
      "payable": false,
      "stateMutability": "pure",
      "type": "function"
    },
    {
      "constant": true,
      "inputs": [
        {
          "name": "_msg",
          "type": "bytes32"
        }
      ],
      "name": "leafSum",
      "outputs": [
        {
          "name": "hash",
          "type": "bytes32"
        }
      ],
      "payable": false,
      "stateMutability": "pure",
      "type": "function"
    },
    {
      "constant": true,
      "inputs": [
        {
          "name": "_data",
          "type": "bytes32"
        }
      ],
      "name": "dataSum",
      "outputs": [
        {
          "name": "hash",
          "type": "bytes32"
        }
      ],
      "payable": false,
      "stateMutability": "pure",
      "type": "function"
    },
    {
      "constant": true,
      "inputs": [
        {
          "name": "a",
          "type": "bytes32"
        },
        {
          "name": "b",
          "type": "bytes32"
        }
      ],
      "name": "nodeSum",
      "outputs": [
        {
          "name": "hash",
          "type": "bytes32"
        }
      ],
      "payable": false,
      "stateMutability": "pure",
      "type": "function"
    },
    {
      "constant": false,
      "inputs": [
        {
          "name": "_client",
          "type": "address"
        },
        {
          "name": "_provider",
          "type": "address"
        }
      ],
      "name": "setAddresses",
      "outputs": [],
      "payable": false,
      "stateMutability": "nonpayable",
      "type": "function"
    },
    {
      "constant": true,
      "inputs": [
        {
          "name": "merkleRoot",
          "type": "bytes32"
        },
        {
          "name": "data",
          "type": "bytes"
        },
        {
          "name": "proofSet",
          "type": "bytes32[]"
        },
        {
          "name": "proofIndex",
          "type": "uint256"
        },
        {
          "name": "numLeaves",
          "type": "uint256"
        }
      ],
      "name": "verifyProof",
      "outputs": [
        {
          "name": "",
          "type": "bool"
        },
        {
          "name": "",
          "type": "bytes32"
        },
        {
          "name": "",
          "type": "bytes32"
        },
        {
          "name": "",
          "type": "string"
        }
      ],
      "payable": false,
      "stateMutability": "view",
      "type": "function"
    },
    {
      "constant": true,
      "inputs": [
        {
          "name": "hashString",
          "type": "string"
        }
      ],
      "name": "calculateLeafIndex",
      "outputs": [
        {
          "name": "",
          "type": "uint256"
        },
        {
          "name": "",
          "type": "uint256"
        }
      ],
      "payable": false,
      "stateMutability": "view",
      "type": "function"
    },
    {
      "constant": true,
      "inputs": [
        {
          "name": "proofSet",
          "type": "bytes32[]"
        }
      ],
      "name": "calculateArrayHash",
      "outputs": [
        {
          "name": "hash",
          "type": "bytes32"
        }
      ],
      "payable": false,
      "stateMutability": "view",
      "type": "function"
    },
    {
      "constant": false,
      "inputs": [
        {
          "name": "data",
          "type": "bytes"
        }
      ],
      "name": "gamwToSpitiMou",
      "outputs": [],
      "payable": false,
      "stateMutability": "nonpayable",
      "type": "function"
    },
    {
      "constant": false,
      "inputs": [
        {
          "name": "user",
          "type": "uint256"
        }
      ],
      "name": "testEvent",
      "outputs": [],
      "payable": false,
      "stateMutability": "nonpayable",
      "type": "function"
    },
    {
      "constant": false,
      "inputs": [],
      "name": "deposit",
      "outputs": [],
      "payable": true,
      "stateMutability": "payable",
      "type": "function"
    },
    {
      "constant": true,
      "inputs": [],
      "name": "money",
      "outputs": [
        {
          "name": "",
          "type": "uint256"
        }
      ],
      "payable": false,
      "stateMutability": "view",
      "type": "function"
    },
    {
      "constant": false,
      "inputs": [
        {
          "name": "signatureClient",
          "type": "bytes"
        },
        {
          "name": "signatureProvider",
          "type": "bytes"
        },
        {
          "name": "data",
          "type": "bytes"
        }
      ],
      "name": "VrfSgn",
      "outputs": [],
      "payable": false,
      "stateMutability": "nonpayable",
      "type": "function"
    },
    {
      "constant": false,
      "inputs": [
        {
          "name": "signatureClient",
          "type": "bytes"
        },
        {
          "name": "signatureProvider",
          "type": "bytes"
        },
        {
          "name": "_merkleRoot",
          "type": "bytes32"
        },
        {
          "name": "_data",
          "type": "bytes"
        },
        {
          "name": "_proofSet",
          "type": "bytes32[]"
        },
        {
          "name": "_fileContractSize",
          "type": "uint256"
        },
        {
          "name": "_revision",
          "type": "uint256"
        }
      ],
      "name": "verifySignatures",
      "outputs": [],
      "payable": false,
      "stateMutability": "nonpayable",
      "type": "function"
    },
    {
      "constant": false,
      "inputs": [
        {
          "name": "merkleRoot",
          "type": "bytes32"
        },
        {
          "name": "data",
          "type": "bytes"
        },
        {
          "name": "proofSet",
          "type": "bytes32"
        },
        {
          "name": "fileContractSize",
          "type": "uint256"
        },
        {
          "name": "my_revision",
          "type": "uint256"
        }
      ],
      "name": "computeMsgHash",
      "outputs": [
        {
          "name": "keccakHash",
          "type": "bytes32"
        }
      ],
      "payable": false,
      "stateMutability": "nonpayable",
      "type": "function"
    }
  ],
  "bytecode": "0x60806040526078420160045534801561001757600080fd5b506122e8806100276000396000f3fe60806040526004361061011d576000357c0100000000000000000000000000000000000000000000000000000000900463ffffffff1680631515bc2b146101225780631899147c146101515780631df9f39f1461022d5780633e6dd2d8146102805780634ddd108a146102d95780634f8665f514610304578063563437ee146105105780636ee6110e1461055f578063799ca0ee1461064257806390107afe1461067b5780639e949466146106ec578063bca5d7601461073b578063bff4982a146109e3578063c0b4ad3414610ae7578063c47dbc9b14610bc3578063d0e30db014610c8b578063dcd9c7fa14610c95578063e8968ea714610cd0578063ef4592fb14610d1f578063f570af3314610dfb578063fa21904d14610ed4575b600080fd5b34801561012e57600080fd5b506101376110ca565b604051808215151515815260200191505060405180910390f35b34801561015d57600080fd5b506102176004803603602081101561017457600080fd5b810190808035906020019064010000000081111561019157600080fd5b8201836020820111156101a357600080fd5b803590602001918460018302840111640100000000831117156101c557600080fd5b91908080601f016020809104026020016040519081016040528093929190818152602001838380828437600081840152601f19601f8201169050808301925050505050505091929192905050506110d6565b6040518082815260200191505060405180910390f35b34801561023957600080fd5b506102666004803603602081101561025057600080fd5b810190808035906020019092919050505061117b565b604051808215151515815260200191505060405180910390f35b34801561028c57600080fd5b506102c3600480360360408110156102a357600080fd5b81019080803590602001909291908035906020019092919050505061119b565b6040518082815260200191505060405180910390f35b3480156102e557600080fd5b506102ee6111ff565b6040518082815260200191505060405180910390f35b34801561031057600080fd5b5061047c600480360360a081101561032757600080fd5b81019080803590602001909291908035906020019064010000000081111561034e57600080fd5b82018360208201111561036057600080fd5b8035906020019184600183028401116401000000008311171561038257600080fd5b91908080601f016020809104026020016040519081016040528093929190818152602001838380828437600081840152601f19601f820116905080830192505050505050509192919290803590602001906401000000008111156103e557600080fd5b8201836020820111156103f757600080fd5b8035906020019184602083028401116401000000008311171561041957600080fd5b919080806020026020016040519081016040528093929190818152602001838360200280828437600081840152601f19601f8201169050808301925050505050505091929192908035906020019092919080359060200190929190505050611209565b604051808515151515815260200184815260200183815260200180602001828103825283818151815260200191508051906020019080838360005b838110156104d25780820151818401526020810190506104b7565b50505050905090810190601f1680156104ff5780820380516001836020036101000a031916815260200191505b509550505050505060405180910390f35b34801561051c57600080fd5b506105496004803603602081101561053357600080fd5b81019080803590602001909291905050506115cd565b6040518082815260200191505060405180910390f35b34801561056b57600080fd5b506106256004803603602081101561058257600080fd5b810190808035906020019064010000000081111561059f57600080fd5b8201836020820111156105b157600080fd5b803590602001918460018302840111640100000000831117156105d357600080fd5b91908080601f016020809104026020016040519081016040528093929190818152602001838380828437600081840152601f19601f820116905080830192505050505050509192919290505050611628565b604051808381526020018281526020019250505060405180910390f35b34801561064e57600080fd5b506106576116c1565b60405180848152602001838152602001828152602001935050505060405180910390f35b34801561068757600080fd5b506106ea6004803603604081101561069e57600080fd5b81019080803573ffffffffffffffffffffffffffffffffffffffff169060200190929190803573ffffffffffffffffffffffffffffffffffffffff1690602001909291905050506116dc565b005b3480156106f857600080fd5b506107256004803603602081101561070f57600080fd5b810190808035906020019092919050505061178e565b6040518082815260200191505060405180910390f35b34801561074757600080fd5b506109e1600480360360e081101561075e57600080fd5b810190808035906020019064010000000081111561077b57600080fd5b82018360208201111561078d57600080fd5b803590602001918460018302840111640100000000831117156107af57600080fd5b91908080601f016020809104026020016040519081016040528093929190818152602001838380828437600081840152601f19601f8201169050808301925050505050505091929192908035906020019064010000000081111561081257600080fd5b82018360208201111561082457600080fd5b8035906020019184600183028401116401000000008311171561084657600080fd5b91908080601f016020809104026020016040519081016040528093929190818152602001838380828437600081840152601f19601f82011690508083019250505050505050919291929080359060200190929190803590602001906401000000008111156108b357600080fd5b8201836020820111156108c557600080fd5b803590602001918460018302840111640100000000831117156108e757600080fd5b91908080601f016020809104026020016040519081016040528093929190818152602001838380828437600081840152601f19601f8201169050808301925050505050505091929192908035906020019064010000000081111561094a57600080fd5b82018360208201111561095c57600080fd5b8035906020019184602083028401116401000000008311171561097e57600080fd5b919080806020026020016040519081016040528093929190818152602001838360200280828437600081840152601f19601f8201169050808301925050505050505091929192908035906020019092919080359060200190929190505050611798565b005b3480156109ef57600080fd5b50610ad1600480360360a0811015610a0657600080fd5b810190808035906020019092919080359060200190640100000000811115610a2d57600080fd5b820183602082011115610a3f57600080fd5b80359060200191846001830284011164010000000083111715610a6157600080fd5b91908080601f016020809104026020016040519081016040528093929190818152602001838380828437600081840152601f19601f820116905080830192505050505050509192919290803590602001909291908035906020019092919080359060200190929190505050611a4d565b6040518082815260200191505060405180910390f35b348015610af357600080fd5b50610bad60048036036020811015610b0a57600080fd5b8101908080359060200190640100000000811115610b2757600080fd5b820183602082011115610b3957600080fd5b80359060200191846001830284011164010000000083111715610b5b57600080fd5b91908080601f016020809104026020016040519081016040528093929190818152602001838380828437600081840152601f19601f820116905080830192505050505050509192919290505050611b7b565b6040518082815260200191505060405180910390f35b348015610bcf57600080fd5b50610c8960048036036020811015610be657600080fd5b8101908080359060200190640100000000811115610c0357600080fd5b820183602082011115610c1557600080fd5b80359060200191846001830284011164010000000083111715610c3757600080fd5b91908080601f016020809104026020016040519081016040528093929190818152602001838380828437600081840152601f19601f820116905080830192505050505050509192919290505050611c20565b005b610c93611cbf565b005b348015610ca157600080fd5b50610cce60048036036020811015610cb857600080fd5b8101908080359060200190929190505050611d0f565b005b348015610cdc57600080fd5b50610d0960048036036020811015610cf357600080fd5b8101908080359060200190929190505050611d56565b6040518082815260200191505060405180910390f35b348015610d2b57600080fd5b50610de560048036036020811015610d4257600080fd5b8101908080359060200190640100000000811115610d5f57600080fd5b820183602082011115610d7157600080fd5b80359060200191846001830284011164010000000083111715610d9357600080fd5b91908080601f016020809104026020016040519081016040528093929190818152602001838380828437600081840152601f19601f820116905080830192505050505050509192919290505050611db1565b6040518082815260200191505060405180910390f35b348015610e0757600080fd5b50610ebe60048036036020811015610e1e57600080fd5b8101908080359060200190640100000000811115610e3b57600080fd5b820183602082011115610e4d57600080fd5b80359060200191846020830284011164010000000083111715610e6f57600080fd5b919080806020026020016040519081016040528093929190818152602001838360200280828437600081840152601f19601f820116905080830192505050505050509192919290505050611e82565b6040518082815260200191505060405180910390f35b348015610ee057600080fd5b506110c860048036036060811015610ef757600080fd5b8101908080359060200190640100000000811115610f1457600080fd5b820183602082011115610f2657600080fd5b80359060200191846001830284011164010000000083111715610f4857600080fd5b91908080601f016020809104026020016040519081016040528093929190818152602001838380828437600081840152601f19601f82011690508083019250505050505050919291929080359060200190640100000000811115610fab57600080fd5b820183602082011115610fbd57600080fd5b80359060200191846001830284011164010000000083111715610fdf57600080fd5b91908080601f016020809104026020016040519081016040528093929190818152602001838380828437600081840152601f19601f8201169050808301925050505050505091929192908035906020019064010000000081111561104257600080fd5b82018360208201111561105457600080fd5b8035906020019184600183028401116401000000008311171561107657600080fd5b91908080601f016020809104026020016040519081016040528093929190818152602001838380828437600081840152601f19601f820116905080830192505050505050509192919290505050611f44565b005b60006004544211905090565b60008160405160200180807f307830300000000000000000000000000000000000000000000000000000000081525060040182805190602001908083835b6020831015156111395780518252602082019150602081019050602083039250611114565b6001836020036101000a038019825116818451168082178552505050505050905001915050604051602081830303815290604052805190602001209050919050565b60006020528060005260406000206000915054906101000a900460ff1681565b6000828260405160200180807f30783031000000000000000000000000000000000000000000000000000000008152506004018381526020018281526020019250505060405160208183030381529060405280519060200120905080905092915050565b6000600154905090565b600080600060608486111515156112ae576040517f08c379a00000000000000000000000000000000000000000000000000000000081526004018080602001828103825260318152602001807f70726f6f66496e6465782063616e6e6f7420626520626967676572207468616e81526020017f206e756d626572206f66204c656176657300000000000000000000000000000081525060400191505060405180910390fd5b600080905080885111151561132b576040517f08c379a00000000000000000000000000000000000000000000000000000000081526004018080602001828103825260188152602001807f6361726566756c6c2070726f6f66536574206973206e696c000000000000000081525060200191505060405180910390fd5b60006113368a611b7b565b905060018201915060008890505b60011561145b5760008360019060020a028460019060020a028b81151561136757fe5b04029050600060018560019060020a028301039050898110151561138c57505061145b565b8092508460018d51011115156113e8576000848f6040805190810160405280600881526020017f707277746f206966000000000000000000000000000000000000000000000000815250985098509850985050505050506115c1565b6001850360019060020a02828c03101561142757611420848d6001880381518110151561141157fe5b9060200190602002015161119b565b935061144e565b61144b8c6001870381518110151561143b57fe5b906020019060200201518561119b565b93505b6001850194505050611344565b60018803811415156114eb578260018b51011115156114be576000828d6040805190810160405280600a81526020017f6465757465726f2069660000000000000000000000000000000000000000000081525096509650965096505050506115c1565b6114e2828b600186038151811015156114d357fe5b9060200190602002015161119b565b91506001830192505b5b60018a51018310156115295761151c8a6001850381518110151561150c57fe5b906020019060200201518361119b565b91506001830192506114ec565b8b82141561157b576001828d6040805190810160405280600881526020017f747269746f20696600000000000000000000000000000000000000000000000081525096509650965096505050506115c1565b6000828d6040805190810160405280600a81526020017f7465746172746f2066640000000000000000000000000000000000000000000081525096509650965096505050505b95509550955095915050565b60008160405160200180807f3078303000000000000000000000000000000000000000000000000000000000815250600401828152602001915050604051602081830303815290604052805190602001209050809050919050565b6000806000836040516020018082805190602001908083835b6020831015156116665780518252602082019150602081019050602083039250611641565b6001836020036101000a038019825116818451168082178552505050505050905001915050604051602081830303815290604052805190602001206001900490508062010000828115156116b657fe5b069250925050915091565b6000806000426103e842026005809050925092509250909192565b80600260006101000a81548173ffffffffffffffffffffffffffffffffffffffff021916908373ffffffffffffffffffffffffffffffffffffffff16021790555081600360006101000a81548173ffffffffffffffffffffffffffffffffffffffff021916908373ffffffffffffffffffffffffffffffffffffffff1602179055507fe6569275a8232bff54e6428e5449131c6efb5f0c076484ec2eac6820d17944d360405160405180910390a15050565b6000819050919050565b60008082815260200190815260200160002060009054906101000a900460ff16151515611853576040517f08c379a00000000000000000000000000000000000000000000000000000000081526004018080602001828103825260298152602001807f54686973207265766973696f6e2068617320616c7265616479206265656e206381526020017f68616c6c656e676564000000000000000000000000000000000000000000000081525060400191505060405180910390fd5b600160008083815260200190815260200160002060006101000a81548160ff021916908315150217905550600061188984611e82565b9050600061189a8787848787611a4d565b905060006118a8828b612056565b905060006118b6838b612056565b90507f7f3b87761264433c6a51816d4a39bc38a623fdcee775f1d4a1b1ebfc91c3d0c884848484604051808581526020018481526020018373ffffffffffffffffffffffffffffffffffffffff1673ffffffffffffffffffffffffffffffffffffffff1681526020018273ffffffffffffffffffffffffffffffffffffffff1673ffffffffffffffffffffffffffffffffffffffff16815260200194505050505060405180910390a1600360009054906101000a900473ffffffffffffffffffffffffffffffffffffffff1673ffffffffffffffffffffffffffffffffffffffff168273ffffffffffffffffffffffffffffffffffffffff16148015611a095750600260009054906101000a900473ffffffffffffffffffffffffffffffffffffffff1673ffffffffffffffffffffffffffffffffffffffff168173ffffffffffffffffffffffffffffffffffffffff16145b15611a3f577f62f7b0eb6707a93897fb85ea5270ac3dc99a5c60b070bba1c9fef79281630adb60405160405180910390a1611a40565b5b5050505050505050505050565b60008086868686866040516020018086815260200185805190602001908083835b602083101515611a935780518252602082019150602081019050602083039250611a6e565b6001836020036101000a038019825116818451168082178552505050505050905001848152602001838152602001828152602001955050505050506040516020818303038152906040528051906020012090507fbc9ffa176f9d4469a4b22e436c22d67bf90abcba6dd16749b5f742c49815f031816040518082815260200191505060405180910390a18060405160200180807f19457468657265756d205369676e6564204d6573736167653a0a333200000000815250601c018281526020019150506040516020818303038152906040528051906020012091508191505095945050505050565b60008160405160200180807f307830300000000000000000000000000000000000000000000000000000000081525060040182805190602001908083835b602083101515611bde5780518252602082019150602081019050602083039250611bb9565b6001836020036101000a038019825116818451168082178552505050505050905001915050604051602081830303815290604052805190602001209050919050565b7fc92fd90bac1d5c3fbe60d2cd7832044e609d1001b109f02cf3bb87e5b91d02f3816040518080602001828103825283818151815260200191508051906020019080838360005b83811015611c82578082015181840152602081019050611c67565b50505050905090810190601f168015611caf5780820380516001836020036101000a031916815260200191505b509250505060405180910390a150565b6103e8341415611d0c57346001819055507f9e9e2cfb62e2a54c39a5e9d6df903460d2926683b45bbb6e661ba24c5f055e27346040518082815260200191505060405180910390a1611d0d565b5b565b3373ffffffffffffffffffffffffffffffffffffffff16817ffb80fe9e72e5a07e92cdefb0faca9552ec1090f4175ff874adb7b36c40fd8f5060405160405180910390a350565b60008160405160200180807f3078303000000000000000000000000000000000000000000000000000000000815250600401828152602001915050604051602081830303815290604052805190602001209050809050919050565b6000816040516020018082805190602001908083835b602083101515611dec5780518252602082019150602081019050602083039250611dc7565b6001836020036101000a0380198251168184511680821785525050505050509050019150506040516020818303038152906040528051906020012090508060405160200180807f19457468657265756d205369676e6564204d6573736167653a0a333200000000815250601c01828152602001915050604051602081830303815290604052805190602001209050809050919050565b6000606060008090505b8351811015611f3057818482815181101515611ea457fe5b906020019060200201516040516020018083805190602001908083835b602083101515611ee65780518252602082019150602081019050602083039250611ec1565b6001836020036101000a0380198251168184511680821785525050505050509050018281526020019250505060405160208183030381529060405291508080600101915050611e8c565b508080519060200120915081915050919050565b6000611f4f82611db1565b90506000611f5d8286612056565b90506000611f6b8386612056565b9050600360009054906101000a900473ffffffffffffffffffffffffffffffffffffffff1673ffffffffffffffffffffffffffffffffffffffff168273ffffffffffffffffffffffffffffffffffffffff161480156120175750600260009054906101000a900473ffffffffffffffffffffffffffffffffffffffff1673ffffffffffffffffffffffffffffffffffffffff168173ffffffffffffffffffffffffffffffffffffffff16145b1561204d577f62f7b0eb6707a93897fb85ea5270ac3dc99a5c60b070bba1c9fef79281630adb60405160405180910390a161204e565b5b505050505050565b6000604182511415156120d1576040517f08c379a00000000000000000000000000000000000000000000000000000000081526004018080602001828103825260208152602001807f4543445341203a20496e76616c6964207369676e6174757265206c656e67746881525060200191505060405180910390fd5b60008060006020850151925060408501519150606085015160001a9050601b8160ff16141580156121065750601c8160ff1614155b1561219f576040517f08c379a00000000000000000000000000000000000000000000000000000000081526004018080602001828103825260238152602001807f4543445341203a20696e76616c6964207369676e61747572652027762720766181526020017f6c7565000000000000000000000000000000000000000000000000000000000081525060400191505060405180910390fd5b600060018783868660405160008152602001604052604051808581526020018460ff1660ff1681526020018381526020018281526020019450505050506020604051602081039080840390855afa1580156121fe573d6000803e3d6000fd5b505050602060405103519050600073ffffffffffffffffffffffffffffffffffffffff168173ffffffffffffffffffffffffffffffffffffffff16141515156122af576040517f08c379a00000000000000000000000000000000000000000000000000000000081526004018080602001828103825260198152602001807f4543445341203a20696e76616c6964207369676e61747572650000000000000081525060200191505060405180910390fd5b809450505050509291505056fea165627a7a72305820c9d7d202e2443ae2b203ca94a021e9f41a7d7f2e8f184c553d13d7ee65cbda620029",
  "source": "pragma solidity ^0.5.0;\n\nimport {ECDSA} from \"./ECDSA.sol\";\n\ncontract tryecdsa2{\n\n\t//uint length;\n\tmapping(uint => bool) public revision;\n\n\tuint moneyUpload;\t\n\n\taddress provider;\n\taddress client;\n\n\tuint256 endingTime = now + 120;\n\n\tevent contractChallenged();\n\tevent pipes(bytes data);\n\tevent dep(uint payment);\n\tevent auction(bytes32 taskID, uint duration);\n\tevent setAddress();\n\tevent hashes(bytes32 proofSetHash, bytes32 msgHash, address client, address provider);\n\tevent messageHash(bytes32 mesgHash);\n\t\n\tevent test(uint indexed user, address indexed sender);\n\n\tfunction getResult(bytes memory _msg ) public pure returns(bytes32 hash){\n\t\thash = keccak256(abi.encodePacked(_msg));\n\t\thash = keccak256((abi.encodePacked(\"\\x19Ethereum Signed Message:\\n32\",hash)));\n\t\treturn hash;\n\t}\n\n\n\tfunction hasClosed() public view returns (bool) {\n\t\treturn now > endingTime;\n\t} \n\n\n\t//Test keyword now \n\tfunction returnCurrentBlockNumber() public view returns(uint256 , uint256, uint256) {\n\t\treturn (now, now *1000, 5);\t\n\t}\n\tfunction printBytes(bytes32 _data) public pure returns(bytes32 ){\n\t\treturn _data;\t\n\t}\n\n\tfunction bytesHash(bytes memory _msg) public pure returns(bytes32){\n\t\treturn keccak256(abi.encodePacked(\"0x00\", _msg));\n\t}\n\n\n\tfunction msgHash(string memory _msg) public pure returns(bytes32 ){\n\t\treturn keccak256(abi.encodePacked(\"0x00\", _msg));\t\n\t}\n\n\tfunction leafSum(bytes32 _msg) public pure returns(bytes32 hash){\n\t\thash = keccak256(abi.encodePacked(\"0x00\",_msg));\n\t\treturn hash;\n\t}\n\n\tfunction dataSum(bytes32 _data) public pure returns(bytes32 hash){\n\t\thash = keccak256(abi.encodePacked(\"0x00\", _data));\n\t\treturn hash;\n\t\t\t\n\t}\n\n\tfunction nodeSum(bytes32 a, bytes32 b) public pure returns(bytes32 hash){\n\t\thash = keccak256(abi.encodePacked(\"0x01\", a, b));\n\t\treturn hash;\t\n\t}\n\n\tfunction setAddresses(address _client, address _provider) public {\n\t\tprovider = _provider;\n\t\tclient = _client;\t\t\n\t\temit setAddress();\n\t}\n\n\t//fixed proofSet contains the actual proofSet except of actual data\n\tfunction verifyProof(/*bytes memory data,*/ bytes32 merkleRoot, bytes memory data, bytes32[] memory proofSet, uint proofIndex, uint numLeaves) public view returns (bool, bytes32, bytes32, string memory ){\n\t\t//require(merkleRoot != NULL, \"cannot create a proof when merkleRoot is nil\");\n\t\trequire(proofIndex <= numLeaves, \"proofIndex cannot be bigger than number of Leaves\");\n\t\tuint height = 0;\n\t\trequire(proofSet.length > height, \"carefull proofSet is nil\");\n\t//\theight++; \t\n\t//\tbytes32 sum = leafSum(proofSet[height]);\n\t\tbytes32 sum = bytesHash(data);\t\n\t\theight = height + 1;\n\t\tuint stableEnd = proofIndex;\n\n\t\twhile(true) {\n\t\t\tuint subTreeStartIndex = (proofIndex / (1 << height)) * (1 << height);\t\n\t\t\tuint subTreeEndIndex = subTreeStartIndex + (1 << (height)) - 1;\n\t\t\tif (subTreeEndIndex >= numLeaves) {\n\t\t\t\tbreak;\t\n\t\t\t}\n\t\t\tstableEnd = subTreeEndIndex;\n\t\t\t\n\t\t\tif (proofSet.length + 1<= height){\n\t\t\t\treturn (false, sum, merkleRoot, \"prwto if\");\t\n\t\t\t}\n\t\t\tif ((proofIndex - subTreeStartIndex) < (1 << (height - 1))){\n\t\t\t\tsum = nodeSum(sum, proofSet[height - 1]);\t\n\t\t\t} else {\n\t\t\t\tsum = nodeSum(proofSet[height - 1], sum);\t\n\t\t\t}\n\t\t\theight = height + 1;\n\t\t\t\n\t\t}\n\n\t\tif (stableEnd != (numLeaves-1)) {\n\t\t\tif (proofSet.length + 1 <= height) {\n\t\t\t\treturn (false, sum, merkleRoot, \"deutero if\"); \n\t\t\t}\t\n\t\t\tsum = nodeSum(sum, proofSet[height - 1]);\n\t\t\theight = height + 1;\n\t\t}\n\t\n\t\twhile(height < proofSet.length + 1){\n\t\t\tsum = nodeSum(proofSet[height - 1], sum);\t\n\t\t\theight = height + 1;\n\t\t}\n\t\t\t\t\n\t\tif(sum == merkleRoot){\n\t\t\treturn (true, sum, merkleRoot, \"trito if\");\t\n\t\t}\n\t\treturn (false, sum,  merkleRoot, \"tetarto fd\");\n\t}\n\n\n\n\tfunction calculateLeafIndex(string memory hashString) public view returns (uint256 , uint256){\n\t\tuint256 number = uint256(keccak256(abi.encodePacked(hashString)));\n\t\treturn (number, number % 65536);\t\n\t}\n\n\tfunction calculateArrayHash(bytes32[] memory proofSet) public view returns(bytes32 hash){\n\t\tbytes memory data;\n\t\tfor (uint i = 0; i < proofSet.length; i++){\n\t\t\tdata = abi.encodePacked(data, proofSet[i]); \n\t\t}\n\t\thash = keccak256(data);\n\t\treturn hash;\t\n\t}\n\n\tfunction gamwToSpitiMou(bytes memory data) public{\n\t\temit pipes(data);\t\n\t}\n\n\n\n\n\n\tfunction recover(bytes32 hash, bytes memory signature) internal pure returns(address){\n\t\n\t\tif(signature.length != 65){\n\t\t\trevert(\"ECDSA : Invalid signature length\");\t\n\t\t}\t\n\n\t\tbytes32 r;\n\t\tbytes32 s;\n\t\tuint8 v;\n\n\t\tassembly{\n\t\t\tr := mload(add(signature, 0x20))\t\n\t\t\ts := mload(add(signature, 0x40))\n\t\t\tv := byte(0, mload(add(signature, 0x60)))\t\n\t\t}\n\n\t\tif (v != 27 && v != 28) {\n\t\t\trevert(\"ECDSA : invalid signature 'v' value\");\t\n\t\t}\n\n\t\taddress signer = ecrecover(hash, v, r, s);\n\t\trequire(signer != address(0), \"ECDSA : invalid signature\");\n\n\t\treturn signer;\n\t}\n\n\n\tfunction testEvent(uint user) public {\n\t\temit test(user, msg.sender);\t\n\t}\n\n\tfunction deposit() public payable {\n\t\tif (msg.value == 1000){\n\t\t\tmoneyUpload = msg.value;\n\t\t\temit dep(msg.value);\t\t\t\n\t\t}else{\n\t\t}\n\t}\n\n\tfunction money() public view returns(uint){\n\t\treturn moneyUpload;\t\n\t}\n\n\tfunction VrfSgn(bytes memory signatureClient, bytes memory signatureProvider, bytes memory data) public {\n\t\tbytes32 msgHash = getResult(data);\n\t\taddress _client = ECDSA.recover(msgHash, signatureClient);\n\t\taddress _provider = ECDSA.recover(msgHash, signatureProvider);\n\t\tif(_client == client && _provider == provider){\n\t\t\temit contractChallenged();\t\n\t\t} else {}\n\t\t\t\n\t}\n\n\tfunction verifySignatures(\n\t\tbytes memory signatureClient, \n\t\tbytes memory signatureProvider, \n\t\tbytes32 _merkleRoot, \n\t\tbytes memory _data, \n\t\tbytes32[] memory _proofSet, \n\t\tuint _fileContractSize, \n\t\tuint _revision) \n\t\tpublic  /*returns (bool ) */{\n\t\t\n\t\trequire(!revision[_revision], \"This revision has already been challenged\");\n\t\trevision[_revision] = true;\n\n\t\tbytes32 proofSetHash = calculateArrayHash(_proofSet);\n\t\tbytes32 hash = computeMsgHash(_merkleRoot, _data, proofSetHash, _fileContractSize, _revision); \n\t\taddress _client = ECDSA.recover(hash, signatureClient);\n\t\taddress _provider = ECDSA.recover(hash, signatureProvider);\n\n\t\temit hashes(proofSetHash, hash, _client, _provider);\n\n\t\tif (_client == client  && _provider == provider) {\n\t\t\temit contractChallenged();\n\t\t\t//return true;\n\t\t} else {\n\t\t//\treturn false;\n\t\t}\n\n\t}\n\n\n\tfunction computeMsgHash(bytes32 merkleRoot, bytes memory data, bytes32 proofSet, uint fileContractSize, uint my_revision) public  returns (bytes32 keccakHash) {\n\t\tbytes32 hash = keccak256(abi.encodePacked(merkleRoot, data, proofSet, fileContractSize, my_revision));\n\t\temit messageHash(hash);\n\t\tkeccakHash = keccak256(abi.encodePacked(\"\\x19Ethereum Signed Message:\\n32\", hash));\n\t\t//_length = my_msg.length;\n\t\treturn keccakHash;\n\t}\n\n\n}\n",
  "sourcePath": "/home/fotis/truffle-example/contracts/tryecdsa2.sol",
  "compiler": {
    "name": "solc",
    "version": "0.5.0+commit.1d4f565a.Emscripten.clang"
  },
  "schemaVersion": "3.2.3",
  "updatedAt": "2021-05-25T16:29:23.828Z",
  "networkType": "ethereum",
  "devdoc": {
    "methods": {}
  },
  "userdoc": {
    "methods": {}
  }
}