{
  "contractName": "tryecdsa",
  "abi": [
    {
      "constant": true,
      "inputs": [],
      "name": "getResult",
      "outputs": [
        {
          "name": "sum",
          "type": "uint256"
        }
      ],
      "payable": false,
      "stateMutability": "pure",
      "type": "function"
    },
    {
      "constant": true,
      "inputs": [
        {
          "name": "hash",
          "type": "bytes32"
        },
        {
          "name": "signature",
          "type": "bytes"
        },
        {
          "name": "_msg",
          "type": "string"
        }
      ],
      "name": "verify",
      "outputs": [
        {
          "name": "verified",
          "type": "bool"
        }
      ],
      "payable": false,
      "stateMutability": "view",
      "type": "function"
    },
    {
      "constant": true,
      "inputs": [
        {
          "name": "my_msg",
          "type": "string"
        }
      ],
      "name": "computeMsgHash",
      "outputs": [
        {
          "name": "keccakHash",
          "type": "bytes32"
        }
      ],
      "payable": false,
      "stateMutability": "pure",
      "type": "function"
    }
  ],
  "bytecode": "0x608060405234801561001057600080fd5b506108fb806100206000396000f3fe608060405260043610610057576000357c0100000000000000000000000000000000000000000000000000000000900463ffffffff168063d6ebb8321461005c578063de29278914610138578063fd25e14d14610163575b600080fd5b34801561006857600080fd5b506101226004803603602081101561007f57600080fd5b810190808035906020019064010000000081111561009c57600080fd5b8201836020820111156100ae57600080fd5b803590602001918460018302840111640100000000831117156100d057600080fd5b91908080601f016020809104026020016040519081016040528093929190818152602001838380828437600081840152601f19601f8201169050808301925050505050505091929192905050506102e4565b6040518082815260200191505060405180910390f35b34801561014457600080fd5b5061014d6103f6565b6040518082815260200191505060405180910390f35b34801561016f57600080fd5b506102ca6004803603606081101561018657600080fd5b8101908080359060200190929190803590602001906401000000008111156101ad57600080fd5b8201836020820111156101bf57600080fd5b803590602001918460018302840111640100000000831117156101e157600080fd5b91908080601f016020809104026020016040519081016040528093929190818152602001838380828437600081840152601f19601f8201169050808301925050505050505091929192908035906020019064010000000081111561024457600080fd5b82018360208201111561025657600080fd5b8035906020019184600183028401116401000000008311171561027857600080fd5b91908080601f016020809104026020016040519081016040528093929190818152602001838380828437600081840152601f19601f820116905080830192505050505050509192919290505050610410565b604051808215151515815260200191505060405180910390f35b6000606082905060606102f78251610510565b9050808460405160200180807f19457468657265756d205369676e6564204d6573736167653a0a000000000000815250601a0183805190602001908083835b60208310151561035b5780518252602082019150602081019050602083039250610336565b6001836020036101000a03801982511681845116808217855250505050505090500182805190602001908083835b6020831015156103ae5780518252602082019150602081019050602083039250610389565b6001836020036101000a038019825116818451168082178552505050505050905001925050506040516020818303038152906040528051906020012092508292505050919050565b600080600190506000600290508082019250829250505090565b600061041b826102e4565b841415156104b7576040517f08c379a000000000000000000000000000000000000000000000000000000000815260040180806020018281038252602e8152602001807f5468652068617368206973206e6f742070726f64756365642066726f6d20746881526020017f6973206d6573736167652021212100000000000000000000000000000000000081525060400191505060405180910390fd5b60006104c38585610669565b90503373ffffffffffffffffffffffffffffffffffffffff168173ffffffffffffffffffffffffffffffffffffffff161415610503576001915050610509565b60009150505b9392505050565b60606000821415610558576040805190810160405280600181526020017f30000000000000000000000000000000000000000000000000000000000000008152509050610664565b600082905060005b600082141515610586578080600101915050600a8281151561057e57fe5b049150610560565b6060816040519080825280601f01601f1916602001820160405280156105bb5781602001600182028038833980820191505090505b50905060006001830390505b60008614151561065c57600a868115156105dd57fe5b066030017f01000000000000000000000000000000000000000000000000000000000000000282828060019003935081518110151561061857fe5b9060200101907effffffffffffffffffffffffffffffffffffffffffffffffffffffffffffff1916908160001a905350600a8681151561065457fe5b0495506105c7565b819450505050505b919050565b6000604182511415156106e4576040517f08c379a00000000000000000000000000000000000000000000000000000000081526004018080602001828103825260208152602001807f4543445341203a20496e76616c6964207369676e6174757265206c656e67746881525060200191505060405180910390fd5b60008060006020850151925060408501519150606085015160001a9050601b8160ff16141580156107195750601c8160ff1614155b156107b2576040517f08c379a00000000000000000000000000000000000000000000000000000000081526004018080602001828103825260238152602001807f4543445341203a20696e76616c6964207369676e61747572652027762720766181526020017f6c7565000000000000000000000000000000000000000000000000000000000081525060400191505060405180910390fd5b600060018783868660405160008152602001604052604051808581526020018460ff1660ff1681526020018381526020018281526020019450505050506020604051602081039080840390855afa158015610811573d6000803e3d6000fd5b505050602060405103519050600073ffffffffffffffffffffffffffffffffffffffff168173ffffffffffffffffffffffffffffffffffffffff16141515156108c2576040517f08c379a00000000000000000000000000000000000000000000000000000000081526004018080602001828103825260198152602001807f4543445341203a20696e76616c6964207369676e61747572650000000000000081525060200191505060405180910390fd5b809450505050509291505056fea165627a7a723058202edd4331db735343bde1b57ea5ec70b5ee90d618888e12640f72f3c2ecbdaf0a0029",
  "source": "pragma solidity ^0.5.0;\n\nimport {ECDSA} from \"./ECDSA.sol\";\n\ncontract tryecdsa{\n\n\t//uint length;\n\n\tfunction getResult() public pure returns(uint sum){\n\t\tuint a = 1;\n\t\tuint b = 2;\n\t\tsum = a + b;\n\t\treturn sum;\n\t}\n\n\n\tfunction verify(bytes32 hash, bytes memory signature, string memory _msg) public view returns (bool verified) {\n\t\trequire(hash == computeMsgHash(_msg), \"The hash is not produced from this message !!!\");\n\t\taddress _sender = ECDSA.recover(hash, signature);\n\t\tif (_sender == msg.sender) {\n\t\t\treturn true;\n\t\t} else {\n\t\t\treturn false;\n\t\t}\n\n\t}\n\n\n\tfunction computeMsgHash(string memory my_msg) public pure returns (bytes32 keccakHash) {\n\t\tbytes memory msgBytes = bytes(my_msg);\n\t\tstring memory length = uint2str(msgBytes.length);\n\t\tkeccakHash = keccak256(abi.encodePacked(\"\\x19Ethereum Signed Message:\\n\", length, my_msg));\n\t\t//_length = my_msg.length;\n\t\treturn keccakHash;\n\t}\n\n\n\tfunction uint2str(uint _i) internal pure returns (string memory _uintAsString) {\n\t\tif (_i == 0) {\n\t\t\treturn \"0\";\n\t\t}\n\t\tuint j = _i;\n\t        uint len;\n\t\twhile (j != 0) {\n\t\t\tlen++;\n\t\t\tj /= 10;\n\t\t}\n\t\tbytes memory bstr = new bytes(len);\n\t   \tuint k = len - 1;\n\t\twhile (_i != 0) {\n\t\t        bstr[k--] = byte(uint8(48 + _i % 10));\n\t \t       _i /= 10;\n\t        }\n\t\treturn string(bstr);\n\t}\n\n\n\n\n\n\n\n}\n",
  "sourcePath": "/home/fotis/truffle-example/contracts/tryecdsa.sol",
  "compiler": {
    "name": "solc",
    "version": "0.5.0+commit.1d4f565a.Emscripten.clang"
  },
  "schemaVersion": "3.2.3",
  "updatedAt": "2021-05-25T16:29:23.384Z",
  "networkType": "ethereum",
  "devdoc": {
    "methods": {}
  },
  "userdoc": {
    "methods": {}
  }
}